:020000040800F2
:10000000F81400209D010008FB1B0008C51900081A
:10001000F91B000823030008B136000800000000A7
:10002000000000000000000000000000BD1D0008EE
:1000300079030008000000006D1D0008C91D0008BC
:10004000B7010008B7010008B7010008B7010008B0
:10005000B7010008B7010008B7010008B7010008A0
:10006000B7010008B7010008B7010008B701000890
:10007000B7010008B7010008B7010008B701000880
:10008000B7010008B7010008B7010008B701000870
:10009000B7010008B7010008B7010008B701000860
:1000A000B7010008B7010008B7010008B701000850
:1000B000B7010008B7010008B7010008B701000840
:1000C000B7010008B7010008B7010008B701000830
:1000D000B7010008B7010008B7010008B701000820
:1000E000B7010008B7010008B7010008B701000810
:1000F000B7010008B7010008B7010008B701000800
:10010000B7010008B7010008B7010008B7010008EF
:10011000B7010008B7010008B7010008B7010008DF
:10012000B7010008B7010008B7010008B7010008CF
:10013000B7010008B7010008B7010008B7010008BF
:10014000B7010008B7010008B7010008FD1B00084F
:10015000B7010008B7010008B7010008B70100089F
:10016000B7010008B7010008B7010008B70100088F
:10017000B7010008B7010008B7010008B70100087F
:10018000B7010008B7010008DFF80CD000F08CF8C8
:1001900000480047AD370008F814002006488047A3
:1001A00006480047FEE7FEE7FEE7FEE7FEE7FEE75C
:1001B000FEE7FEE7FEE7FEE7811E00088901000872
:1001C0002DE9F05F0546002092469B46884606468C
:1001D000814640241BE0284641464746224600F01F
:1001E00053F853465A46C01A914110D31146184647
:1001F000224600F03AF82D1A67EB01084F462246D6
:100200000120002100F031F817EB00094E41201EBB
:10021000A4F10104DFDC484631462A464346BDE8E6
:10022000F09F40EA01039B0703D009E008C9121FB1
:1002300008C0042AFAD203E011F8013B00F8013BA0
:10024000521EF9D27047D2B201E000F8012B491ECC
:10025000FBD270470022F6E710B513460A46044663
:100260001946FFF7F0FF204610BD202A04DB203A94
:1002700000FA02F1002070479140C2F1200320FAF9
:1002800003F3194390407047202A04DB203A21FAF7
:1002900002F00021704721FA02F3D040C2F120029F
:1002A0009140084319467047064C074D06E0E06848
:1002B00040F0010394E8070098471034AC42F6D3AD
:1002C000FFF766FF943B0008B43B000870B58C183C
:1002D00010F8015B15F0070301D110F8013B2A115A
:1002E00006D110F8012B03E010F8016B01F8016B47
:1002F0005B1EF9D12B0705D40023521E0DD401F843
:10030000013BFAE710F8013BCB1A921C03E013F80B
:10031000015B01F8015B521EF9D5A142D8D3002040
:1003200070BDFEE7002070470349024808600020C6
:100330007047000020060020BC0000200A4810B5CD
:1003400000680A4AD0F8BC1200200B5C1354401C11
:10035000C0B20228F9D3064901200870054801F00F
:10036000DDFE002010BD0000BC00002009000020C0
:1003700008000020200600207047FEE770B5044604
:1003800000F0F2F80546601C02D0044800780444EE
:1003900000F0EAF8401BA042FAD370BDC000002074
:1003A0002DE9F84FDFF880B100224FF003094FF03C
:1003B0000F0A0BF1040E01250B6895402B40AB4250
:1003C00072D14C68012C05D0022C03D0112C01D025
:1003D000122C10D18668540009FA04F7BE43CF6886
:1003E000A7403743876046680C79AE43C4F30014D6
:1003F000944034434460C468570009FA07F58E6896
:10040000AC43BE402643C6604C68022C01D0122C7F
:1004100012D1D40800EB840CDCF820605407E40E01
:100420000AFA04F826EA0806D1F8108008FA04F857
:1004300048EA0608CCF820800468AC430D7905F042
:100440000305BD40254305604C68E40065D5374C85
:10045000256845F480452560246822F0030504F4EE
:1004600080440094324C2E19D6F808789407250F52
:100470000AFA05F4A7432F4CA04201D1002424E03E
:100480002D4CA04201D101241FE02C4CA04201D1EF
:1004900002241AE02A4CA04201D1032415E0294C81
:1004A000A04202D1042410E037E0274CA04201D141
:1004B00005240AE0254CA04201D1062405E0244C85
:1004C000A04201D1072400E00824AC403C43C6F818
:1004D0000848DBF800405D464E689C43F60300D5B3
:1004E0001C432C60DEF8004075464E689C43B60302
:1004F00000D51C432C600C4D08352C684E689C437D
:10050000F60200D51C432C60074D0C352C684E6854
:100510009C43B60200D51C432C60521C102AFFF4E9
:100520004AAFBDE8F88F0000003C0140443802406B
:100530000030014000000240000402400008024078
:10054000000C02400010024000140240001802405B
:10055000001C02400069084000D0012070470AB129
:10056000816170470904FBE701488068704700001B
:10057000C000002002488168027811448160704701
:10058000C00000200B4810B5016841F40071016003
:10059000016841F480610160016841F4807101608B
:1005A000032000F06FF8002000F006F800F024F8B7
:1005B000002010BD003C024070B50D4D04464FF4C4
:1005C0007A712878B1FBF0F00A490968B1FBF0F0C4
:1005D00001F07CF948B9102C07D200222146501EA8
:1005E00000F030F800206C6070BD012070BD00008C
:1005F000C0000020CC0000200A4808B5016841F482
:1006000080410160006800F4804000900548001FB0
:10061000016841F080510160006800F08050009056
:1006200008BD000044380240002809DB00F01F022A
:10063000012191404009800000F1E020C0F8001144
:1006400070470000F0B40E4B1B68C3F30223C3F1E4
:100650000704042C00D904241D1D072D01D20023FA
:1006600000E0DB1E012606FA04F56D1E0D409D40DC
:100670009E40761E164045EA0601F0BC03F019B80C
:100680000CED00E0064A00F0070110684FF6FF038A
:10069000184040EA012003490843106070470000F9
:1006A0000CED00E00000FA05704700684162002090
:1006B0007047F0B50368586A39B19C6A4FF4827587
:1006C00000EB144400204E1E0AE040EA024098620B
:1006D0000FE005EB8007DF59401C04EB1744C0B264
:1006E000B042F6D344EA02404FF4807202EB81013B
:1006F00058500020F0BDD0F8040401F0DEBFC1EB7B
:10070000C10200EB8202D0F80404926C01F049BFF0
:10071000C1EBC10200EB8202D0F80404D2F8082237
:1007200001F094BFD0F8040401F0C9BF70B50446CD
:100730000B0601F00F00C0EBC00104EB81014FF08C
:1007400001024FF0000503D581F83D203C3103E064
:1007500081F8FD5101F5FE71087094F8BC03012881
:1007600008D084F8BC23206802F03EFB84F8BC5318
:10077000002070BD022070BD70B5044601F00F006E
:100780006268904201D9012070BD0B0601F00F0193
:10079000C1EBC10104EB81014FF001024FF00005F4
:1007A00003D581F83D203C3103E081F8FD5101F58E
:1007B000FE718D70087094F8BC03012808D084F88D
:1007C000BC23206802F008FD84F8BC53002070BDF3
:1007D000022070BD2DE9F04104460F0601F00F0024
:1007E000C0EBC00104EB81014FF001064FF00005A2
:1007F00003D581F83D603C3103E081F8FD5101F5FE
:10080000FE7108708A60CB704A7802B1C880022BF2
:1008100000D10D7194F8BC03012809D084F8BC63A1
:10082000206802F03FFA284684F8BC53BDE8F08106
:100830000220FBE770B50D4601F00F04C4EBC401C4
:1008400000EB8101C1F81032C1F808220023C1F881
:10085000143281F8FD3181F8FC41036901F5FE7124
:10086000012B00D10A612A07027C006803D002F044
:100870000BFD002070BD02F0F7FBFAE770B50446EF
:100880000D4601F00F006168884201D9012070BD5A
:1008900029064FF000064FF0010207D5C0EBC0015A
:1008A00004EB810181F83D203C3107E0C5EBC50137
:1008B00004EB810181F8FD6101F5FE718A70087019
:1008C00094F8BC03012807D084F8BC23206802F008
:1008D000AFFC280702D007E0022070BD217C04F5A0
:1008E0007172206802F04CFC84F8BC63002070BD7B
:1008F00070B50D4601F00F04C4EBC40100EB81019B
:100900000B658A6400234B65012381F83D3001F8B3
:100910003C4F0369012B00D10A612A07027C006861
:1009200003D002F0B1FC002070BD02F09DFBFAE79D
:100930002DE9F84F05680446284602F0CCFD002852
:100940007ED1206802F0F3FD002879D0206802F003
:10095000EEFD800704D52068416901F00201416184
:10096000206802F0E4FDC10604F57170009034D5F2
:100970002068816921F0100181612F6A07F00F0062
:10098000C0EBC00004EB8006C7F3434006F5FE76DB
:10099000022802D0062811D01AE047F6F07007426C
:1009A00016D0C7F30A1217462846F16802F0C3FDB5
:1009B000F0683844F060B069384408E008222846FE
:1009C000009902F0B8FDB069C7F30A110844B0619C
:1009D0002068816941F010018161206802F0A7FD63
:1009E00000034FF0010B5AD50026206802F07EFD6F
:1009F0008046DFF864A34FE05FEAC87049D0F1B2E7
:100A0000206802F08CFD0746C00707D005EB4611B1
:100A1000C1F808BB3146204601F0F6F8380722D568
:100A200005EB46110820C1F8080B2068D0F840906B
:100A300000EB4610D0F8081BD14507D9090400E0A7
:100A400087E103D54FF40041C0F8081B204600F0B1
:100A500073FAD14507D92069012804D12068012102
:100A6000009A02F08DFBF80604D505EB4611102024
:100A7000C1F8080BB80604D505EB46112020C1F8D3
:100A8000080BB80405D505EB46114FF40050C1F82A
:100A9000080B4FEA5808761CB8F1000FACD120685B
:100AA00002F045FD40034FF000095BD5206802F0DD
:100AB00016FD8046002652E05FEAC8704CD0F1B2C5
:100AC000206802F01AFD0746C00723D006F00F0188
:100AD0000BFA01F0D5F834188143C5F8341805EB4A
:100AE0004610C0F808B9206901280FD1C6EBC6002E
:100AF00004EB8000D0E911211144816436B9206DE6
:100B000020B920680121009A02F03AFBF1B2204698
:100B1000FFF7F5FD380704D505EB46110820C1F8AD
:100B20000809F80604D505EB46111020C1F808099C
:100B3000780604D505EB46114020C1F80809B8072E
:100B400004D505EB46110220C1F80809380603D583
:100B50003146204601F0BEF84FEA5808761CB8F13D
:100B6000000FA9D1206802F0E2FC002811DAD5F8C4
:100B7000040820F00100C5F8040894F8F4030128E3
:100B800029D0204600F0BCF92068416901F00041FD
:100B90004161206802F0CBFC00050BD5D5F80808B0
:100BA000C00702D0204600F0EFF92068416901F447
:100BB00000614161206802F0BAFCC00468D5D5F834
:100BC000040820F00100C5F804081021206802F094
:100BD00063FC002127E084F8F49300212046FFF70E
:100BE00063FDD1E705EB41104FF67F32C0F80829CD
:100BF000D0F8003923F40013C0F80039D0F80039D8
:100C000043F00063C0F80039C0F8082BD0F8002B7F
:100C100022F40012C0F8002BD0F8002B42F0006242
:100C2000C0F8002B491C60688842DBD8D5F81C0846
:100C300040F00110C5F81C08206B60B1D5F884089D
:100C400040F00B00C5F88408D5F8440840F00B00CC
:100C5000C5F844080CE0D5F8140842F22B0108430B
:100C6000C5F81408D5F8100840F00B00C5F81008B6
:100C7000D5F8000820F4FE60C5F80008217C206843
:100C8000009A02F07DFA2068416901F480514161C7
:100C9000206802F04CFC800415D5206802F042F870
:100CA000206802F00BFCE06000F0BEFA0146227BF7
:100CB000206802F077FC204600F00CF920684169BA
:100CC00001F400514161206802F031FC000707D5B2
:100CD000204600F019F92068416901F008014161DE
:100CE000206802F024FCC00208D50021204600F054
:100CF00035F82068416901F480114161206802F0F3
:100D000016FC800208D50021204600F02BF8206850
:100D1000416901F400114161206802F008FC4000C3
:100D200007D52046FFF7E7FC2068416901F08041C4
:100D30004161206802F0FBFB40070AD52068456846
:100D4000680702D52046FFF7EDFC2068416829437B
:100D50004160BDE8F88F00000A30544FD0F8040419
:100D600001F0FABCD0F8040401F0F8BC2DE9F04120
:100D70008AB0040005D094F8BD032668002520B190
:100D800008E001200AB0BDE8F08184F8BC53204699
:100D900000F05EF8032084F8BD03F06BC00500D4BA
:100DA0002561206802F05AF904F1100128228846D2
:100DB0006846FFF736FA94E80F0001F0C1FF0227FA
:100DC000C8BB0021206802F0C5FB002101260EE00F
:100DD000C1EBC10004EB800080F83D6000F83C1FCF
:100DE000C180C5708560C560491CC9B24561606835
:100DF0008842EDD8002111E0C1EBC10004EB800076
:100E000080F8FD5180F8FC1180F8FF51C0F80452C1
:100E1000C0F80852491CC9B2C0F810526068884234
:100E2000EAD8282241466846FFF7FBF994E80F000C
:100E300002F05AF810B184F8BD73A2E784F8385074
:100E400084F8BD63206802F043F800209AE70000B0
:100E500010B586B0044614216846FFF7FBF92068F8
:100E6000B0F1A04F2FD119480021026842F00102D1
:100E70000260006800F0010005904FF4C05000903F
:100E80000220CDE90101032003900A200490694665
:100E90000F48FFF785FA0D48001D016841F08001F9
:100EA00001600A481430016841F480410160006823
:100EB000002200F48040059011464320FFF7C2FB5A
:100EC0004320FFF7B1FB06B010BD000030380240F0
:100ED0000000024070B50446C068012570B10228C8
:100EE00001D0FFF74AFA2946D4F8040401F08CFC3B
:100EF000D4F80404BDE8704001F047BC0025F2E7D7
:100F0000D0F8040401F06ABCD0F8040401F070BC0D
:100F100010B5044690F8BC0301280BD0012084F8DA
:100F2000BC0384F83810206802F02BFB002084F802
:100F3000BC0310BD022010BDD0F8042400F571716F
:100F4000104601F06DBC10B50446006894F8BC135F
:100F5000012906D0012184F8BC13A16A012902D01D
:100F600008E0022010BDA169012903D0816B41F482
:100F700080318163206801F09FFF206802F076FADB
:100F8000002084F8BC0310BD10B50446D0F804045A
:100F900001F088FC2068D0F8001E41F00101C0F883
:100FA000001E206A002804D00248016841F00601B2
:100FB000016010BD10ED00E02DE9F8430446006823
:100FC0004FF00109C1074FF0000501D1400726D5B8
:100FD000DFF80C81C8F86850FFF7C6FA0646414FA3
:100FE00004E0FFF7C1FA801B022857D838680001D7
:100FF000F7D46068217A800140EA01703949843170
:101000000860C8F86890FFF7AFFA064604E0FFF7FB
:10101000ABFA801B022841D838680001F7D5207848
:10102000800752D52F484030016841F0805101605F
:1010300000682D4F00F080500090386840F48070B8
:101040003860FFF791FA064604E0FFF78DFA801B3F
:10105000022823D83868C005F7D5224E703630688C
:1010600010F4407020D0A18901F4407181421BD05E
:1010700030681E4920F44070C1F800900D60306067
:101080003068C00710D0FFF76FFA054641F2883785
:1010900007E0FFF769FA401BB84202D90320BDE818
:1010A000F88330688007F4D5E0680E49C0F3012268
:1010B0000831032A0BD0086820F4F8100860306863
:1010C000A189C1F30B01084330600020E7E70A68FB
:1010D000074B22F4F812184002430A60EFE70000C1
:1010E000000047420038024000700040400E474276
:1010F000FFFCFF0F2DE9F0470D46040065D0DFF837
:101100001491D9F80000EFB200F00F00A84207D206
:1011100089F80070D9F8000000F00F00A84254D1FF
:1011200020683D4E810712D5400703D5306840F452
:10113000E05030602078000703D5306840F460400C
:1011400030603068A16820F0F000084330602078FB
:10115000C0072DD0304960680839012812D0022814
:1011600013D0032811D00968890700292DDA3168C6
:1011700021F0030101433160FFF7F6F9804641F2A7
:10118000883A0EE009688903EFE709688901ECE70E
:10119000FFF7EAF9A0EB0801514502D90320BDE8A9
:1011A000F0873068616800F00C00B0EB810FEFD180
:1011B000D9F80010484601F00F01A94207D907707D
:1011C000006800F00F00A84201D00120E7E7207876
:1011D000400705D53068E16820F4E05008433060EE
:1011E0002078000706D53068216920F4604040EA85
:1011F000C100306000F03EF83168084AC1F30311C5
:10120000515CC8400649086006480068FFF7D4F9F9
:101210000020C4E7003C0240083802407C3B000844
:10122000CC000020C4000020014800687047000086
:10123000CC0000200448054900680968044AC1F34D
:101240008221515CC8407047CC0000200838024021
:101250008C3B00080448054900680968044AC1F34A
:101260004231515CC8407047CC0000200838024031
:101270008C3B0008154810B5006810F00C011448AC
:1012800013D0144B04290FD008290ED10F4C241F62
:10129000216801F03F022168490207D52068C0F3A8
:1012A0008810A0FB030106E0184610BD2168C1F3B9
:1012B0008811A1FB00010023FEF782FF2168C1F322
:1012C0000141491C4900B0FBF1F010BD0838024053
:1012D0000024F40040787D012DE9F84F040075D01A
:1012E0002078DFF828A3C007AAF1040548D00AF146
:1012F00004000168C1F38101012908D00068C0F32E
:10130000810002280AD1DAF80000400206D52868D8
:10131000800335D560680028E1D031E06068B0F521
:10132000803F10D0B0F5A02F286810D020F4803076
:101330002860286820F4802028606068A0B1FFF74A
:1013400013F906460CE0286840F48030F4E740F4D6
:1013500080202860F7E7FFF707F9801B642871D821
:1013600028688003F7D50BE0FFF7FEF8064604E097
:10137000FFF7FAF8801B6428F1D828688003F7D4B7
:101380002078DFF88C9280074FF0000B3DD59F4806
:10139000001D016811F00C0F08D00068C0F3810037
:1013A00002280AD1DAF80000400206D42868800733
:1013B00015D5E068012809D111E0E068B8B1012134
:1013C000C9F80010FFF7D0F8064605E01AE1FFF76C
:1013D000CBF8801B0228C2D828688007F7D5286878
:1013E000216920F0F80040EAC10028600DE0C9F84A
:1013F00000B0FFF7B9F8064604E0FFF7B5F8801B28
:1014000002281FD828688007F7D42078000722D543
:101410007E4F80486169703771B101210160FFF72B
:10142000A3F8064604E0FFF79FF8801B022809D8BE
:1014300038688007F7D50EE0C0F800B0FFF794F8E1
:10144000064605E082E0FFF78FF8801B02287DD872
:1014500038688007F7D42078400765D56B484FF08F
:1014600000083C300068C0000BD468483C3001687C
:1014700041F08051016000684FF0010800F0805099
:101480000090654F3868C0050FD4386840F480700C
:101490003860FFF769F8064604E0FFF765F8801B3F
:1014A000022853D83868C005F7D5584FA0686C3764
:1014B00001280FD00528386810D020F001003860CE
:1014C000386820F004003860A068B0B1FFF74CF82D
:1014D00006460EE0386840F00100F4E740F00400F2
:1014E0003860F7E7FFF740F8811B41F2883081420E
:1014F00063D838688007F5D50DE0FFF735F8064664
:1015000006E0FFF731F8811B41F28830814254D860
:1015100038688007F5D4B8F1000F05D03B483C305F
:10152000016821F080510160A069B8B33749091DF5
:101530000968C1F38101022946D00228584606D025
:10154000C9F86000FFF710F8044639E035E04F466F
:10155000C9F86000FFF708F8064604E0FFF704F852
:10156000801B022829D828688001F7D4D4E9070114
:101570000843A16A294A490802EB0141626A41EA2B
:101580008211084394F82C1040EA0161CAF8001057
:1015900001203866FEF7E8FF044605E034E0FEF778
:1015A000E3FF001B022808D828688001F7D52BE04C
:1015B000FEF7DAFF001B022802D90320BDE8F88FEE
:1015C00028688001F4D41FE00128F7D0DAF8000081
:1015D000E26900F48001914214D1226A00F03F01D7
:1015E00091420FD147F6C071626A0140914209D120
:1015F000A26A00F44031914204D1E16A00F07060C7
:10160000884201D00120D9E70020D7E70438024002
:1016100000004742800E4742007000400000FFFF7C
:1016200070B5040002D0607F10B106E0012070BDEB
:1016300000202077204600F049F8022060772168DA
:10164000CA204862216853204862204600F09AFB75
:10165000FF25042618BB206881681B4A1140816061
:101660002068816862681143D4E904231A43114356
:1016700081602168E068086120680169228941EA87
:10168000024101612068C16821F08001C1602068C9
:101690008068800607D4204600F0FEF818B1206864
:1016A00045626677C2E72068016C21F480210164FD
:1016B0002068016CA2691143016420684562012021
:1016C0006077002070BD0000BFFF8FFF00680349F6
:1016D000884202D10249012008607047002800407A
:1016E0003C0E47422DE9F0470446007F0B46012897
:1016F0001FD04FF0010984F81C9002206077DAB106
:101700009878D97840EA014558781978000240EA7B
:10171000413005432168CA2048622168532048624D
:10172000204600F02FFB0026FF274FF0040860BB87
:101730001AE00220BDE8F0875878C10603D500F012
:10174000EF000A305870D87800F011FB0204587886
:1017500000F00DFB42EA0022987800F008FB0243FB
:10176000187842EA4035D5E70F48054020684560C3
:101770002068C16821F08001C1602068806880060F
:101780000AD4204600F088F830B12068476284F817
:101790001D8026770120CDE72068476284F81D90E0
:1017A00026770020C6E700003FFFFF002DE9F04745
:1017B0000446007F0D46012827D04FF0010A84F827
:1017C0001CA0022060772068002680684FEA4060F5
:1017D000F2B1002800DBEE70A878297840EA0147D2
:1017E0006878E978000240EA014007432168CA208E
:1017F0004862216853204862204600F0C3FA4FF047
:10180000FF084FF00409A0BB16E00220BDE8F087F6
:10181000002800DBEE70287800F0A9FA020468784E
:1018200000F0A5FA42EA0022A87800F0A0FA0243EC
:10183000E87842EA0047D9E7164807402068076081
:101840002068816821F480218160D5E9031001437B
:1018500020688268114381602068C16821F080019E
:10186000C1602068806880060BD4204600F014F820
:1018700038B12168C1F8248084F81D9026770120B2
:10188000C4E72168C1F8248084F81DA026770020D1
:10189000BCE700007F7F7F0070B505460068C16827
:1018A00021F0A001C160FEF75FFE04464FF47A7696
:1018B00006E0FEF759FE001BB04201D9032070BDBF
:1018C0002868C0688006F4D5002070BD10B5401EA1
:1018D000B0F1807F01D3012010BD4FF0E0246061A2
:1018E0000F21601701F0E5FE0020A06107202061B4
:1018F000002010BD70B5040004D094F83900002514
:1019000010B106E0012070BD84F83850204600F088
:1019100023F8242084F839002068C16821F400519C
:10192000C160204600F0D6FA2068016921F4904198
:1019300001612068416921F02A0141612068C16884
:1019400041F40051C160E563202084F8390084F837
:101950003A00002070BD000010B586B00446142186
:101960006846FEF777FC14492068884221D1134865
:101970000021026842F010020260006800F01000CE
:1019800005900E481438026842F0010202600068B7
:1019900000F0010005904FF4C06000900220CDE9F6
:1019A0000101032003900720049069460448FEF7D4
:1019B000F7FC06B010BD00000010014044380240A2
:1019C00000000240FEE7F0B500230A243025372648
:1019D0001F4610E0B4EB107F02D905EB107C01E04C
:1019E00006EB107C01F813C001EB430C00015B1CFB
:1019F0008CF80170DBB29342ECD3F0BD2DE9F04FCF
:101A000087B014216846FEF725FC4248002401688F
:101A100041F004010160016801F0040105910168D1
:101A200041F020010160016801F020010591016889
:101A300041F080010160016801F0800105910168B9
:101A400041F040010160016801F040010591016829
:101A500041F001010160016801F001010591016897
:101A600041F0020101600068DFF8AC8000F0020084
:101A70004FF400550590002229464046FEF76FFDC1
:101A8000DFF89890002280214846FEF768FDDFF8D5
:101A900090A06E11002231465046FEF760FDDFF83F
:101AA00084B02F11002239465846FEF758FD0095A4
:101AB0000125CDE90154694640460394FEF770FCC8
:101AC00040208DE8310069464846FEF769FC8020D9
:101AD0000090CDE90154694648460394FEF760FC46
:101AE0000096CDE90154694650460394FEF758FC30
:101AF000009669465846CDE90145FEF751FC00972E
:101B0000CDE90154694658460394FEF749FC07B0F5
:101B1000BDE8F08F30380240000802400014024057
:101B2000001802400004024010B586B01421684637
:101B3000FEF790FB1A48002418490594C0E90014E8
:101B40007F218160FF21C0E9031444618461FFF7B4
:101B500067FD00B1FEE78DF800408DF801408DF87B
:101B600002400394012269460D480494FFF71EFECB
:101B700000B1FEE701208DF814008DF815008DF8F6
:101B8000160020208DF81700012205A90448FFF750
:101B9000A9FD002800D0FEE706B010BD00280040D7
:101BA000B405002010B500220F49104800F0CDFC0C
:101BB00008B1FEF7E2FB0E490C4800F09DFE08B1AB
:101BC000FEF7DBFB0B49094800F0B4FA08B1FEF759
:101BD000D4FB064800F00AFF002803D0BDE81040FF
:101BE000FEF7CBBB10BD00000C000020200600203B
:101BF000D4000020AC000020FEE770470148FEF74B
:101C000097BE0000F00800202DE9F04106680D465F
:101C10000446316C06EB4510D0F8083BD4F810C0F0
:101C20004FF400474FF0200E04F57172BCF1010F24
:101C300008D0DFF898C0614538D1190431D5C0F813
:101C4000087B3FE0224E5FEA037C04D5B14239D9DC
:101C50001904F4D436E05FEA836C02D5C0F808EBCF
:101C600030E013F0280F2DD1B14201D91904E6D488
:101C7000C5EBC50104EB8101D0F8100BD1F804329B
:101C8000C0F31200181AC1F81402D1F8080218445F
:101C9000C1F8080295B9D4F8100278B9012120687A
:101CA0000AE099060AD5C0F808EB07E035B9D4F880
:101CB000100218B90021304601F062FAE9B220465C
:101CC000FEF726FD0020BDE8F08100000A31544FE8
:101CD0000A30544F2DE9F84F0E46C1EBC60100EB18
:101CE00081048146D0F80080D4E914103C34884245
:101CF00002D90120BDE8F88F081AA168814200D2FC
:101D00000846C01C870808EB461A15E0451AA0686B
:101D1000A84200D20546E81C870899F810000090F8
:101D2000ABB2F2B24046E16801F0B0FCE068284492
:101D3000E060A0692844A061DAF8180980B2B842CE
:101D400005D3D4E90501814201D20028DED1D4E9CE
:101D50000501884208D806F00F0101208840D8F814
:101D600034188143C8F834180020C3E770470021B5
:101D700002E00A38C0B2491C0A28FAD2090740EA30
:101D80001160704770B505460068C168490613D4F4
:101D90004FF0FF31C160FEF7E7FB04464FF47A765F
:101DA00006E0FEF7E1FB001BB04201D9032070BD45
:101DB0002868C0684006F4D5002070BD70470178DF
:101DC000407841EA00207047FEF7D4BB30B597B0A9
:101DD00030216846FEF73EFA14210CA8FEF73AFAC5
:101DE000002425481194129413941494016841F02E
:101DF00080510160006800F0805015901F48016814
:101E000041F4804101600068022500F48040159093
:101E1000052000904FF48030019001200290800551
:101E2000CDE90650192008904FF4A870CDE90905B6
:101E300007200B906846FFF74FFA00B1FEE70F202E
:101E4000CDE90C054FF4A050CDE90E404FF4805081
:101E5000109005210CA8FFF74DF900B1FEE74FF4F3
:101E600080701490119511A8FFF7A6F8002800D0F3
:101E7000FEE717B030BD000040380240007000405F
:101E80001048016841F4700101600F48016841F099
:101E9000010101600C4A00210832116002680B4BFD
:101EA0001A400260031D0A4A1A60026822F4802266
:101EB000026005480C30016002495806803908600C
:101EC0007047000088ED00E000380240FFFFF6FE9A
:101ED000103000242DE9F041044600680169E268F1
:101EE00021F4405111430161A1682069E269014375
:101EF0006069104301432068C26849F20C639A4349
:101F00000A43C26020684169A26921F4407111430B
:101F10004161E069192764253226B0F5004F354A42
:101F2000354920684FF0000806D0884201D0904221
:101F300036D1FFF78FF935E0884201D0904202D1C7
:101F4000FFF788F901E0FFF775F961684A18A0FB0F
:101F5000070148EB0803FEF733F90146B0FBF5F043
:101F60000201B1FBF5F06FF01803584301EB80005C
:101F700006EBC000B0FBF5F000F0F80002EB400209
:101F8000B1FBF5F0584301EB800006EBC000B0FB5D
:101F9000F5F000F00700216810448860BDE8F0818A
:101FA000FFF748F901466068830F8200A1FB070133
:101FB000FEF706F90146B0FBF5F06FF0180250434A
:101FC00001EB800006EB0010B0FBF5F000F0F00232
:101FD000B1FBF5F002EB0012B1FBF5F06FF0180366
:101FE000584301EB800006EB0010B0FBF5F000F069
:101FF0000F00D0E70014014000100140D0F8BC02EF
:10200000002101750846704710B5D0F8BC2242B1D6
:10201000D0F8C00251781378C26818469047002063
:1020200010BD032010BD70B50446812100F0B0FA48
:102030000025258765870121204600F0A9FAA4F82C
:102040007851A4F87A51D4F8BC0248B1D4F8C0024F
:1020500004F52F7480688047206801F07FFB2560BD
:10206000002070BD10B5D0F8BC422169012908D10B
:10207000D0F8C00223786178C268184690470020E3
:102080002061002010BD00000A2101800048704737
:102090009C01002029210180004870470C0100208C
:1020A0002921018000487047380100202921018042
:1020B00000487047640100202DE9F04104461820D3
:1020C00001F076FC05004FF0000623D00520C4F88F
:1020D000BC526087A4F87A01402303228121204664
:1020E00000F03EFB01272787402303223946204684
:1020F00000F036FBA4F878712E75D4F8C002406861
:10210000804702232A460121204600F035FB0020AB
:10211000BDE8F0810220C4F8BC62F9E710B5D0F840
:10212000BC222AB10223012100F026FB002010BDB1
:10213000032010BD19B1C0F8C01200207047032061
:10214000704710B51346D0F8BC2222B190F89C42DB
:10215000032C02D00BE0032010BD147D0CB1012034
:1021600010BD012414750A46812100F0A4FB002053
:1021700010BD0000F8B50022D0F8BC32ADF8002048
:102180000D781646144615F0600521D0202D59D142
:102190004A78921E0A2A55D2DFE802F00F085454FA
:1021A000545454130B05887858604EE00122191DD1
:1021B00039E04888000A986047E0012203F10801ED
:1021C00031E001221A61CA88194600F068F83CE043
:1021D0004D78062D10D003DC3DB1012D32D134E015
:1021E0000A2D23D00B2D2DD128E090F89C22032A14
:1021F00028D10222694616E04B882225B5EB132F21
:1022000007D1CA884F2A00D94F22D0F8C0120E68D1
:1022100008E02125B5EB132F04D1CA880D4E092AF9
:1022200000D90922314600F054F80EE090F89C22C3
:10223000032A07D1012203F10C01F4E790F89C2254
:10224000032A04D000F020F803242046F8BD887843
:10225000D860FAE79001002010B5D0F8B8220AB192
:1022600052689047002010BD134610B50A46002161
:1022700000F082FA002010BD134610B50A46002176
:1022800000F019FB002010BD10B50446802100F0BD
:10229000F7FA2046BDE81040002100F0F1BA10B571
:1022A0000323C0F85821C0F89432C0F85C211346CB
:1022B0000A46002100F060FA002010BD10B505218B
:1022C0000023C0F894121A46194600F055FA00206F
:1022D00010BD10B502238261C0F89432C26113466A
:1022E0000A46002100F0E7FA002010BD10B50421D5
:1022F0000023C0F894121A46194600F0DCFA0020B8
:1023000010BD000010B50A46024903A000F0EDF828
:10231000004810BDF80C0020437573746F6D2048A1
:10232000494420436F6E66696700000012200880F0
:10233000004870472C00002010B50A46024903A04F
:1023400000F0D3F8004810BDF80C002043757374FA
:102350006F6D2048494420496E74657266616365FB
:10236000000000000420088000487047280000207A
:1023700010B50A46024903A000F0B7F8004810BDA6
:10238000F80C002053544D6963726F656C6563747B
:10239000726F6E696373000010B50A46024903A0AC
:1023A00000F0A3F8004810BDF80C002053544D3342
:1023B0003220437573746F6D2048756D616E2069AE
:1023C0006E746572666163650000000010B51A20C6
:1023D00008800A480168001D0468001D006808188C
:1023E00009D008220649FFF7EEFA05490422103108
:1023F0002046FFF7E8FA0248801E10BD107AFF1F42
:1024000042000020F8B504460020ADF800004888DE
:102410000D46010A08295FD2DFE801F05E040917C2
:102420005E5E3D45D4F8B412207C0A6819E0207C39
:1024300002260028D4F8B80205D0C16A6846884749
:102440000146467039E0816AF8E7C0B2062843D2F7
:10245000DFE800F0030B1115191DD4F8B40242682F
:1024600006E069469047014627E0D4F8B402826846
:102470008AB3207CF5E7D4F8B402C268F8E7D4F850
:10248000B4020269F4E7D4F8B4024269F0E7D4F880
:10249000B4028269ECE7207CE8B9D4F8B802416B59
:1024A00068468847DFE7207CA8B9D4F8B802016BFA
:1024B00068468847014607204870EA888AB1BDF817
:1024C000000040B1824200D90246ADF8002020460B
:1024D000FFF7FFFEF8BDFFE729462046FFF7D4FED1
:1024E000F8E72046FFF702FFF4E770B50023002865
:1024F0001ED00025044602E06D1CEDB2641C267857
:10250000002EF9D1022404EB450414801278CA5439
:102510005B1C0322CA5400245B1C06E0CA545B1CEB
:10252000DAB28C54521CD3B2401C0278002AF5D186
:1025300070BD01004FF0000004D0012901D0022934
:1025400001D0032070470120704730B4A0B1D0F80B
:10255000B84200230CB1C0F8B832D0F8CC420CB16C
:10256000C0F8CC3209B1C0F8B412012180F89C1235
:10257000027030BC00F0B0B830BC0320704710B51A
:10258000D0F8C402FEF7F8F8BDE81040FFF7D1BF5D
:1025900010B5D0F8C402FEF7C9F8BDE81040FFF747
:1025A000C8BF70B51646044649B1D4F8B8024269AE
:1025B0001AB194F89C02032842D0032070BDD4F8CD
:1025C0009412002504F11400022932D1D0E902321C
:1025D000934206D99A1A826031462046FFF74CFE94
:1025E0000FE09A4214D14068904211D3D4F8981267
:1025F00088420DD2002211462046FFF73DFEC4F866
:10260000985200231A461946204600F0B5F810E00B
:10261000D4F8B802C16829B194F89C02032801D10A
:10262000204688478021204600F02AF92046FFF7FF
:1026300045FE94F8A002012806D184F8A05203E0D8
:10264000204690470028B9D1002070BD10B5134630
:10265000044649B1D4F8B80282691AB194F89C02D0
:10266000032824D0032010BDD4F8941204F5AA70D6
:10267000032920D1D0E902218A420AD9521A826064
:102680000846824200D3024619462046FFF7ECFD79
:1026900011E0D4F8B802016929B194F89C0203282A
:1026A00001D1204688472046FFF720FE03E0204660
:1026B00090470028D7D1002010BD0020704710B5EA
:1026C000012180F89C12D0F8B82212B15268017929
:1026D0009047002010BD000010B5017839BB1549A6
:1026E0000222C1F80404C0F8C4124FF0A0400860F0
:1026F000042048600020C1E90320C1E906200862E7
:102700004862C86208630846FEF730FB08B1FDF76F
:1027100034FE80210748FDF7C8FF4022002105480C
:10272000FDF7C7FF802201210248FDF7C2FF00200C
:1027300010BD0000F00800200A0601F07F01D0F86B
:10274000C402C1EBC10100EB810002D590F83E004C
:10275000704790F8FE0170470020704700207047D6
:1027600010B51C461346D0F8C4022246FEF732F8D4
:10277000BDE81040FFF7DDBE10B5D0F8C402FEF78B
:1027800059F8BDE81040FFF7D4BE70B501250446E6
:1027900080F89C520020C4F894026060C4F8A4023F
:1027A000D4F8BC0228B1D4F8B8020021426820460F
:1027B00090470022402311462046FFF7D1FF4026D4
:1027C000A4F864513346002280212046C4F8606199
:1027D000FFF7C6FFA5840020266270BD90F89C120A
:1027E000042903D190F89D1280F89C1200207047B4
:1027F00010B590F89C12032904D1D0F8B812C96919
:1028000001B18847002010BD01740020704710B549
:10281000D0F8C402FEF77CFBBDE81040FFF789BE8C
:1028200070B5044600F2AA20054600F04DF80120DC
:10283000C4F89402B4F8B002C4F8980294F8AA223A
:1028400012F01F000AD001280ED0022812D0204614
:10285000BDE8704002F0800100F012B82946204621
:10286000BDE8704000F0C4B829462046BDE870407D
:1028700000F0EEB929462046BDE8704000F042B9AC
:1028800010B5D0F8C402FDF7F9FFBDE81040FFF71E
:1028900050BE10B5D0F8C402FEF755FBBDE810409D
:1028A000FFF747BE90F89C1280F89D12042180F833
:1028B0009C120020704710B5D0F8C402FEF718F83B
:1028C000BDE81040FFF735BE70B5044611F8010BA6
:1028D000207011F8010B60700D460846FFF76FFA83
:1028E000A91C60800D460846FFF769FAA080A81C65
:1028F000FFF765FAE08070BD38B504460020ADF8FA
:10290000000041B1C4F8B812896A68468847C4F823
:10291000CC02002038BD032038BD03460320D3F885
:10292000B822002A02D012681846104770470000EB
:102930002DE9F0410F462C4E897800250446317070
:10294000012906D939462046FFF79EFC0320BDE841
:10295000F08194F89C0202280CD003281DD039463F
:102960002046FFF791FC31782046FFF775FC0325E0
:102970002846ECE799B320466160FFF7CEFF0500DB
:1029800004D039462046FFF77FFCF1E72046FFF7E9
:10299000ADFC032084F89C02EAE74FF00208C1B1C5
:1029A000606888421BD0C1B22046FFF755FC3178E1
:1029B00020466160FFF7B1FF050010D03946204680
:1029C000FFF762FC21792046FFF746FC84F89C82E1
:1029D000CEE784F89C8220466160FFF73DFC2046EC
:1029E000FFF784FCC4E70000D0000020FFF751BFD0
:1029F0002DE9F0410A78002712F0600208D0202A61
:102A000001D0402A71D1D0F8B8229268904731E0C5
:102A10004A78002301260A2A67D2DFE802F0415EE5
:102A20006658660805662D29FFF7ECFC5FE0044652
:102A30008888D8B9C888C8B94888802816D200F0D4
:102A40007F0594F89C02032810D084F89E522946F2
:102A50002046FFF7DCFE2046FFF748FC1DB10220B0
:102A600084F89C0243E084F89C6240E020463CE00D
:102A7000FFF75EFF07463AE0CA88012A35D190F891
:102A80009C22012A04D0022A02D0032A2DD104E07C
:102A9000012200F10801836016E00122011D13E00C
:102AA00090F89C22012A03D0022A01D0032A1CD1CB
:102AB000CA88022A19D1C660D0F8A41209B103212C
:102AC000C160022200F10C01FFF703FC0FE049880E
:102AD00001290CD1C0F8A46211E090F89C22012ACF
:102AE00008D0022A06D0032A04D0FFF7CDFB3846CF
:102AF000BDE8F08149880129F9D1C0F8A432FFF777
:102B0000F5FBF4E72DE9F0410D460446287800274F
:102B1000097910F060000BD0202801D0402873D133
:102B2000D4F8B802294682682046904707468CE0D0
:102B30006878D8B3012822D0032865D194F89C0284
:102B4000022802D003287CD10BE0002979D080290B
:102B500077D02046FFF794FE80212046FFF790FEB5
:102B600073E0688838B931B1802904D0E88810B999
:102B70002046FFF785FE2046FFF7B8FB65E094F896
:102B80009C020228E1D003285BD16888D8BB4806A4
:102B900002D02046FFF7F3FC2046FFF7A7FBD4F84E
:102BA000B80229468268204690474EE0FFE794F835
:102BB0009C020026022802D0032842D111E009B16C
:102BC00080293ED1080601F07F0000EB800004EB75
:102BD000800101D5143101E001F5AA7102220E60D5
:102BE0002BE0080601F00F0000EB800004EB8000F2
:102BF0000BD5808C40B101F07F0000EB800004EB2E
:102C0000800514350CE020E01BE0B0F86401C0B191
:102C100001F07F0000EB800004EB800505F5AA754C
:102C200041B1802906D02046FFF786FD10B1012072
:102C3000286000E02E60022229462046FFF749FB6B
:102C400003E029462046FFF71FFB3846BDE8F08128
:102C500070B50646087800240D4610F0600203D0D7
:102C6000202A01D0402A17D196F89C02012803D0CF
:102C7000022801D003280FD1287901280CD8D6F8D2
:102C8000B802826830469047E9880446214306D15D
:102C90003046FFF72BFB02E03046FFF7F5FA2046FF
:102CA00070BD000070B50A78012302F00F054E7860
:102CB000AB401B4CD0F81C58012E17D045EA0343FB
:102CC000C0F81C3800EB4210D0F8002B12040BD4D3
:102CD000D0F8002B0B89C978C3F30A031A4344EADE
:102CE00081410A43C0F8002B002070BD9BB21D43F8
:102CF000C0F81C5800EB4210D0F800391B04F3D484
:102D0000D0F800390D89C978C5F30A0589042B4329
:102D100041EA82510B432343C0F80039E4E7000045
:102D200000800010D0F800196FF30A01C0F80019F4
:102D3000D0F8041841F48071C0F8041800207047DE
:102D400070B5044606980A9E049D0D99012816D078
:102D5000E06840F04000E060204600F02BF8A16BF6
:102D60001EB321F48031A163012D07D1A16841F088
:102D70000601A160A16841F02001A16070BDA06BB7
:102D800020F48030A063E068094A1040E060E06809
:102D900020F44010E060012903D1E06840F4801085
:102DA000E060204600F006F8DEE741F48031DAE723
:102DB000BFFFBDFF0B4A0021491C91420AD803699D
:102DC000002BF9DA0369002143F001030361491C78
:102DD000914201D9032070470369DB07F7D1002036
:102DE00070470000400D030070B54C780A7801234D
:102DF00000EB4212012C2DD0D2F8004B002C0BDA44
:102E0000D2F8004B44F00064C2F8004BD2F8004BFB
:102E100044F08044C2F8004BD0F83C480D781E4680
:102E200005F00F05AB4024EA0343C0F83C38D0F866
:102E30001C48097801F00F0106FA01F324EA034166
:102E4000C0F81C18D2F8000B19490840C2F8000B52
:102E5000002070BDD2F80049002C0BDAD2F80049EE
:102E600044F00064C2F80049D2F8004944F08044BC
:102E7000C2F80049D0F83C480D7805F00F061D4611
:102E8000B3409BB29C43C0F83C48D0F81C4809783A
:102E900001F00F0105FA01F399B28C43C0F81C4808
:102EA000D2F8000903490840C2F80009D0E7000041
:102EB0000078F3EF007833EC10B5D0F8041821F067
:102EC0000201C0F804180320FDF758FA002010BDD5
:102ED00010B5D0F8041841F00201C0F8041803201E
:102EE000FDF74CFA002010BD2DE9F04F0D46DDE94D
:102EF0000B1B00270446DDF824A0DDF8409038467F
:102F00003E4604EB8002C2F80461401C0F28F8D34F
:102F1000B9F1000F204615D0806B20F40012A26397
:102F2000A06B40F400222046A263C4F8006ED4F8DF
:102F30000028C4F80028012916D0D0F8001841F064
:102F4000030116E0D0F8040840F00202C4F8042897
:102F5000A06B40F40012A263A06B20F40022A263D5
:102F6000A06B20F48022DEE7D0F800180BB141F00E
:102F70000101C0F80018102100F08EFA00B10127FD
:102F8000204600F079FA00B10127C4F81068C4F8AF
:102F90001468C4F81C6800204FF000634FF09042A2
:102FA0004FF67F3C14E004EB4011D1F80089B8F1F2
:102FB000000F06DA10B1C1F8002904E0C4F80039A6
:102FC00001E0C1F80069C1F81069C1F808C9401CE6
:102FD0008542E8D8002014E004EB4011D1F8008BC2
:102FE000B8F1000F06DA10B1C1F8002B04E0C4F804
:102FF000003B01E0C1F8006BC1F8106BC1F808CBD1
:10300000401C8542E8D8D4F8100820F48071C4F838
:103010001018A6616FF080406061BAF1000F03D113
:10302000A06940F01000A061A0690A490843A061AE
:10303000BBF1000F03D0A06940F00800A061B9F116
:10304000010F03D1A06904490843A0613846BDE8D7
:10305000F08F000000383C8004000040816821F0BF
:10306000010181600020704770B50D784E78434CA7
:10307000EBB200EB4313012E1FD0D3F8100B6FF30C
:103080001200C3F8100BD3F8100B2040C3F8100B3C
:10309000486908B188684861D3F8100B40F40020F3
:1030A000C3F8100BD3F8100B8C68C4F31204204340
:1030B000C3F8100B012A55D058E04E69002ED3F802
:1030C000106932D06FF31206C3F81069D3F8106993
:1030D0002640C3F810694E698C68A64200D94C613D
:1030E000D3F8104944F40024C3F81049D3F8104928
:1030F0004E69C6F312063443C3F81049012A22D0A0
:1031000000EB4512D2F8003943F00443C2F800390D
:103110004A6932B3D0F83428097801F00F0301214D
:1031200099400A43C0F8342826E02640C3F81069C5
:10313000D3F8104944F40024C3F81049D3F81049D7
:103140006FF31204D8E7096919B100EB4512C2F810
:10315000141900EB4510D0F8001941F00441C0F8F3
:10316000001909E0C86808B1C3F8140BD3F8000BC4
:1031700040F00440C3F8000B002070BDFFFF07E0E3
:1031800010B5036C134CA34203D9D0F8003B002BBD
:103190001EDB0023C0F8103BD0F8103B43F40023A3
:1031A000C0F8103BD0F8103B43F01803C0F8103BB8
:1031B000D0F8103B43F0C043C0F8103B012907D1C1
:1031C000C0F8142BD0F8001B41F08021C0F8001B80
:1031D000002010BD0A30544F4A780B78012A00EBCA
:1031E00043100BD0D0F8002B22F40012C0F8002BB3
:1031F000C978032914D0022912D017E0D0F8002989
:1032000022F40012C0F80029C978032901D002294C
:103210000CD1D0F8001941F08051C0F8001905E038
:10322000D0F8001B41F08051C0F8001B002070470F
:103230000A784B78D1B200EB4110012B12D0D0F8B4
:10324000001B002906DB2AB1D0F8001B21F08041C9
:10325000C0F8001BD0F8001B41F40011C0F8001B9F
:1032600000207047D0F80019002906DB2AB1D0F8F9
:10327000001921F08041C0F80019D0F8001941F47C
:103280000011C0F80019EBE7F8B50C784E78764DD0
:10329000E3B26FF0604700EB4313012E26D0D3F862
:1032A000104B6FF31204C3F8104BD3F8104B2C40A3
:1032B000C3F8104B4D69002D73D08C6825446D1EEA
:1032C000B5FBF4F4D3F8105BA4B207EAC446354367
:1032D000C3F8105BD3F8105B8E686643C6F3120424
:1032E0002543C3F8105B012A70D0A5E04E69002E7B
:1032F000D3F8106921D06FF31206C3F81069D3F820
:1033000010692E40C3F810694E698D682E44761EF0
:10331000B6FBF5F5D3F8106907EAC5453543C3F8A0
:103320001059D3F810594E69C6F312063543C3F845
:103330001059CD78012D0ED019E02E40C3F8106938
:10334000D3F8105945F40025C3F81059D3F8105993
:103350006FF3120509E0D3F8105925F0C045C3F802
:103360001059D3F8105945F00055C3F81059012AE7
:1033700018D000EB4413D3F8004944F00444C3F8D8
:103380000049CC78012C2FD04A6962B3D0F8342898
:10339000097801F00F03012199400A43C0F834284D
:1033A00060E036E00A691AB100EB4413C3F814294F
:1033B000C97801290FD1D0F80818C90500EB4411CC
:1033C000D1F8002903D442F0005202E030E042F08C
:1033D0008052C1F8002900EB4410D0F8001941F0E8
:1033E0000441C0F800193DE0D0F80848E405D3F8DE
:1033F000004902D444F0005401E044F08054C3F882
:10340000004900928A8A93B20A78C96800F03EF9AE
:1034100028E0D3F8104B8D68C5F312052C43C3F890
:10342000104BD3F8104B44F40024C3F8104B5AE768
:10343000CA680AB1C3F8142BC97801290CD1D0F895
:103440000808C005D3F8000B02D440F0005001E09A
:1034500040F08050C3F8000BD3F8000B40F004405C
:10346000C3F8000B0020F8BDFFFF07E0816841F0C2
:103470000101816000207047002110220261054A8D
:10348000491C914201D9032070470369DB06F7D438
:1034900000207047400D03000022202343EA8111E1
:1034A00001610549521C8A4201D903207047036912
:1034B0009B06F7D400207047400D0300D0F80808A1
:1034C00010F0060004D0022803D0062801D00F20F7
:1034D000704702207047406900F001007047D0F843
:1034E0001818D0F81C08084080B27047D0F8181897
:1034F000D0F81C080840000C704710B5D0F8103800
:10350000D0F8342801F00F0400EB4110E24002F043
:103510000102D0F8080943EAC212104010BD00EBC6
:103520004111D1F8081BD0F81408084070474169D0
:103530008069084070470346D21C10B508469208BF
:10354000002103F5805302E01C68491C10C0914221
:10355000FAD310BD10B5C26822F0C042C260012982
:1035600002D029B1012010BDC16841F0005102E034
:10357000C16841F08041C1603220FCF7FFFE0020AD
:1035800010BDD0F8002822F4FE62C0F80028D0F860
:1035900000284FF4FE6303EA01110A43C0F8002833
:1035A00000207047022A3ED1264A274B0A449A42FD
:1035B00001D20F2138E0254A254B0A449A4201D214
:1035C0000E2131E0234A244B0A449A4201D20D21B4
:1035D0002AE0224A224B0A449A4201D20C2123E0DB
:1035E000204A214B0A449A4201D20B211CE01F4A77
:1035F0001F4B0A449A4201D20A2115E01D4A1E4B74
:103600000A449A420FD31D4A1D4B0A449A4201D2E2
:10361000082109E01B4A11441B4A914201D20721AB
:1036200002E0062100E00921C26822F47052C26063
:10363000C2684FF4705303EA81210A43C26000203C
:1036400070470000405327FF00350C00401E1BFF51
:1036500040420F0000DC0BFF804F1200808CF9FE0F
:1036600020D6130060B6E5FE60E3160000D3CEFE60
:1036700040771B00C05BB3FEC091210000CA91FEE1
:1036800020753800E05459FEE09C410010B5029CC2
:1036900064B9DB1C9C0800EB0230002300F580506D
:1036A00002E004C902605B1CA342FAD3002010BDF3
:1036B000FEE70907090E002804DB00F1E02080F88E
:1036C0000014704700F00F0000F1E02080F8141D96
:1036D000704702E008C8121F08C1002AFAD17047DB
:1036E0007047002001E001C1121F002AFBD1704782
:1036F000302303EB101363F30F223A2B02D3DB1DAD
:1037000063F30F2200F00F00303060F307023A2815
:1037100002D3C01D60F307020A70100A4870704798
:103720007EB5034600200A266D46B3FBF6F25442EE
:1037300004EB840403EB440330332B54401CC0B22D
:10374000131EF2D106E0831A2B4413F8013C8B546C
:10375000521CD2B28242F6D37EBD000010B50028C2
:1037600021D0114B0022001F196803E0814203D8C9
:103770000A4649680029F9D152B11368841A9C425B
:1037800004D1006818441060104602E0506000E068
:10379000186039B102680B1A934203D10B681A44BE
:1037A00002604968416010BDA801002008B5FCF71F
:1037B000E9FEFEF70BFBFEF721F9FEF7B5F95E48CF
:1037C0005C49002701604FF4E131C0E901170C2189
:1037D000C760C0E904718761C761FEF78BF800B16B
:1037E000FEE7FEF7DFF900F035F954A000F073F9B9
:1037F00056A000F025F95848006800F011F957A0CC
:1038000000F01EF9012211025648FCF7A8FEDFF86D
:1038100028B1DFF854A100248DF8007025460BF183
:10382000400BDFF84891AAF1010800F02BF9684637
:1038300000F01AF930B1202000F0F0F89DF80000F7
:1038400000F0ECF804208BF8000005F001008BF884
:1038500001005E4640214846FCF77CFEB0704E20D9
:10386000F070162030717771B7710120F07102206D
:1038700031493072092240313D48FEF762FC98F828
:10388000000001282AD13BA000F025F956469AF8FD
:10389000000000F013F9707800F010F90D2000F02E
:1038A00003F9707800B10120317801F0030101299A
:1038B00002D0022910D106E008B1012200E0002266
:1038C0008021484606E008B1012200E000224FF4C2
:1038D00000712C48FCF743FE88F800704FF48071AB
:1038E0002848FCF737FE90B100224FF400512648DB
:1038F000FCF735FE002C98D0641E14F0FF0494D120
:10390000012D92D121A000F0E6F800258DE70122DB
:1039100051031D48FCF723FEFF2C86D2641CE4B241
:10392000FF2C82D1002D80D11DA000F0D4F80125FC
:103930007BE7000000100140D40500200D50726F9D
:103940006772616D2073746172740D00436F7265EC
:1039500020436C6B20000000CC00002020487A0D32
:10396000000000000018024009000020001402407E
:10397000200600205553425F52585F4275666665C7
:10398000723A20000004024000080240427574743C
:103990006F6E2072656C69617365640D00000000D4
:1039A000427574746F6E20707265737365640D0078
:1039B000F0B50B30154D20F007010024144A0FE03C
:1039C00003688B420BD38B4205D95E1A43184768B4
:1039D000C3E9006700E04368136002C004E0021D11
:1039E00010680028ECD12046002802D1286808B1D0
:1039F0000020F0BD064A07481060074A121A22F05C
:103A00000702C0E9002401202860D7E7AC010020AC
:103A1000A8010020FC0E0020F810002000F088B85B
:103A2000FEB56946FFF77CFE054600246E4604E0BD
:103A3000305D00F07DF8641CE4B2AC42F8D3FEBD0A
:103A400010B5044602E0641C00F072F820780028EB
:103A5000F9D110BD02480021016002494160704760
:103A60000000002000100140054949680A689206DC
:103A700003D549680170012070470020704700009D
:103A80000000002018B5074C60680068000608D5E3
:103A9000684600F02BF8002803D061689DF800000C
:103AA000486018BD00000020034949680A681206F2
:103AB000FCD54860704700000000002008B569464A
:103AC000FFF716FE9DF80100FFF7EEFF9DF80000DE
:103AD000FFF7EAFF08BD00B5034602E05B1CFFF7F5
:103AE000E3FF18780028F9D100BD000030B50F4A77
:103AF000B2F80214C1B1EFF31084EFF3138372B67E
:103B0000B2F80054691AC1F30901515C0170B2F8AE
:103B10000204401EA2F8020484F3108803F001009E
:103B200080F31388012030BD002030BDB00100209B
:103B3000114910B5B1F8022440F2FF339A4219D26C
:103B4000EFF31083EFF3138272B6B1F80044085517
:103B5000B1F80004401CC0F30900A1F80004B1F85A
:103B60000204401CA1F8020483F3108802F0010053
:103B700080F3138810BD0000B00100200000000099
:103B8000000000000102030406070809000000000D
:103B900001020304B43B000800000020B001000053
:103BA000CC020008903C0008B0010020481300003F
:103BB000E2360008C1132D231B0865041A71041A8C
:103BC00099041ACD041A05041A39041704030904C8
:103BD00012013202164083045057260201020301EB
:103BE000031A1A031206100BFF0901A1018501092E
:103BF00001152809250175089501B1820E9F918252
:103C00008502090214190E19141503090315132648
:103C1000FF5915190F19151C040904101508818284
:103C2000C0225C142029031B0825041A3D044119F5
:103C3000831182105324F413B9201B0827044B75F9
:103C400021241A650C13FD1F1B080908C11AA110B5
:103C50001A95041AAD041A890414090229130101E2
:103C600025C03209042A02D91509211101140122A3
:103C70004F1607058103402D0507050107291A097D
:103C8000562C691A31130A0632022A40E4810000D8
:040000050800018965
:00000001FF
