:020000040800F2
:10000000581500209D01000833210008891E0008B2
:10001000312100084D040008E93B00080000000001
:10002000000000000000000000000000F5220008B1
:10003000A504000800000000A52200080123000814
:10004000B7010008B7010008B7010008B7010008B0
:10005000B7010008B7010008B7010008B7010008A0
:10006000B7010008B7010008B7010008B701000890
:10007000B7010008B7010008B7010008B701000880
:10008000B7010008B7010008B7010008B701000870
:10009000B7010008B7010008B7010008B701000860
:1000A000B7010008B7010008B7010008B701000850
:1000B000B7010008B7010008B7010008B701000840
:1000C000B7010008B7010008B7010008B701000830
:1000D000B7010008B7010008B7010008B701000820
:1000E000B7010008B7010008B7010008B701000810
:1000F000B7010008B7010008B7010008B701000800
:10010000B7010008B7010008B7010008B7010008EF
:10011000B7010008B7010008B7010008B7010008DF
:10012000B7010008B7010008B7010008B7010008CF
:10013000B7010008B7010008B7010008B7010008BF
:10014000B7010008B7010008B70100083521000811
:10015000B7010008B7010008B7010008B70100089F
:10016000B7010008B7010008B7010008B70100088F
:10017000B7010008B7010008B7010008B70100087F
:10018000B7010008B7010008DFF80CD000F08CF8C8
:1001900000480047E53C0008581500200648804705
:1001A00006480047FEE7FEE7FEE7FEE7FEE7FEE75C
:1001B000FEE7FEE7FEE7FEE7B92300088901000835
:1001C0002DE9F05F0546002092469B46884606468C
:1001D000814640241BE0284641464746224600F01F
:1001E00053F853465A46C01A914110D31146184647
:1001F000224600F03AF82D1A67EB01084F462246D6
:100200000120002100F031F817EB00094E41201EBB
:10021000A4F10104DFDC484631462A464346BDE8E6
:10022000F09F40EA01039B0703D009E008C9121FB1
:1002300008C0042AFAD203E011F8013B00F8013BA0
:10024000521EF9D27047D2B201E000F8012B491ECC
:10025000FBD270470022F6E710B513460A46044663
:100260001946FFF7F0FF204610BD202A04DB203A94
:1002700000FA02F1002070479140C2F1200320FAF9
:1002800003F3194390407047202A04DB203A21FAF7
:1002900002F00021704721FA02F3D040C2F120029F
:1002A0009140084319467047064C074D06E0E06848
:1002B00040F0010394E8070098471034AC42F6D3AD
:1002C000FFF766FF644100088441000870B58C1890
:1002D00010F8015B15F0070301D110F8013B2A115A
:1002E00006D110F8012B03E010F8016B01F8016B47
:1002F0005B1EF9D12B0705D40023521E0DD401F843
:10030000013BFAE710F8013BCB1A921C03E013F80B
:10031000015B01F8015B521EF9D5A142D8D3002040
:1003200070BD0000464910B54A6822F440324A6068
:100330004A6843681A434A6001684A6822F4807236
:100340004A6001684A68036942EA03224A60016818
:100350004A6822F040724A6001684A6883681A431A
:100360004A6001688A6822F400628A6001688A68CB
:10037000C3681A438A60816A6FF07062D142016873
:100380008A6822F070628A6001688A680CD0836A89
:100390001A438A6001688A6822F040528A600168C4
:1003A0008A68C36A1A4301E022F040528A600168F9
:1003B0008A6822F002028A6001688A68037E42EA43
:1003C00043028A6090F82010002901684A680FD023
:1003D00042F400624A6001684A6822F460424A605E
:1003E00001684A68174C436A04EB43331A4301E03F
:1003F00022F400624A600168CA6A22F47002CA628A
:100400000168CA6A838B104C04EB03531A43CA6217
:1004100001688A6822F400728A6001688A6890F82C
:10042000303042EA43228A6001688A6822F480629E
:100430008A6001688A68406942EA8020886010BD4D
:100440000023014000E0FFFF0000F0FFFEE7002076
:100450007047000003490248086000207047000010
:1004600080060020D40000200A4810B500680A4A1F
:10047000D0F8BC1200200B5C1354401CC0B2022800
:10048000F9D3064901200870054802F0E3F800207E
:1004900010BD0000D400002009000020080000204A
:1004A000800600207047FEE778B50024009490F89D
:1004B0003C20012A19D0012280F83C200A68072537
:1004C0000368092A13D9DE680A3A02EB4202954012
:1004D000AE43DE600A788B680A3A02EB4202934030
:1004E0000268D5682B43D36010E0022078BD1E69F6
:1004F00002EB42029540AE431E610A788B6802EB24
:1005000042029340026815692B4313614A681F2514
:10051000072A13D203685E6B521E02EB82029540DB
:10052000AE435E630A8893B20A79521E02EB8202DE
:1005300093400268556B2B43536327E003680D2AF1
:1005400012D21E6BD21F02EB82029540AE431E6395
:100550000A8893B20A79D21F02EB820293400268A2
:10056000156B2B43136311E0DE6A0D3A02EB820236
:100570009540AE43DE620A8893B20A790D3A02EBE7
:10058000820293400268D56A2B43D362164B0568FA
:10059000144A9D4206D10D68122D03D1556845F4C9
:1005A0008005556005689D4218D10B68102B01D05D
:1005B000112B13D1536843F40003536009681029C9
:1005C0000CD10A490A4A0968B1FBF2F101EB810139
:1005D000490000E0491E00910029FBD180F83C4011
:1005E000002078BD0023014000200140E4000020ED
:1005F00040420F000068C06C704770B504004FF0B7
:10060000000603D0206C002510B107E0012070BD6A
:10061000204600F01DF8656484F83C50206CC0064C
:1006200010D4206C20F4885040F002002064204652
:10063000FFF778FE6564206C20F0020040F00100B6
:10064000206400E0012684F83C50304670BD000074
:1006500010B586B0044614216846FFF7FBFD11492A
:10066000206888421CD110480021026842F4807240
:100670000260006800F4807005900B48143802682E
:1006800042F001020260006800F0010005901020B5
:1006900000900320CDE901016946044800F0E2F82A
:1006A00006B010BD00200140443802400000024066
:1006B0002DE9F041044600680D4681684FF00007BF
:1006C00049050BD58068C00508D5206C40F0200096
:1006D000206484F83C700120BDE8F08100F0A6F9A8
:1006E00006460FE0681C0DD025B100F09FF9801B75
:1006F000A84207D9206C40F00400206484F83C70C4
:100700000320E9E7206800688007EBD521686FF0D7
:1007100012000860206C40F400702064206881683A
:1007200011F0405F13D1217E89B9C16A11F4700FB5
:1007300002D0806840050AD4206C20F480702064C8
:10074000206CC00403D4206C40F001002064002021
:10075000C2E7000018B50022009290F83C10012971
:1007600007D0012180F83C1001688B68DB0702D0BC
:1007700011E0022018BD8B6843F001038B602A4909
:100780002A4B0968B1FBF3F101EB410100E0491E7E
:1007900000910029FBD101688B68DB0741D0036C15
:1007A00040F20164A34343F4807303644B685B0528
:1007B00005D5036C23F4005343F480530364036CA6
:1007C000DB0404D5436C23F00603436400E0426479
:1007D00080F83C20164A6FF022030B6051680068D5
:1007E000CA06144906D088421BD1816811F0405FC7
:1007F00013D016E08842F8D00F4A904203D1D1F8C6
:100800000423D206F1D00D4A90420AD1D1F8041344
:1008100001F01F011029E8D303E0816841F0804115
:100820008160002018BD0000E400002040420F005D
:10083000002301400020014000210140002201402E
:1008400070B5044600F0F2F80546601C02D004487A
:100850000078044400F0EAF8401BA042FAD370BDCF
:10086000D80000202DE9F84FDFF880B100224FF0CA
:1008700003094FF00F0A0BF1040E01250B68954098
:100880002B40AB4272D14C68012C05D0022C03D016
:10089000112C01D0122C10D18668540009FA04F7EB
:1008A000BE43CF68A7403743876046680C79AE43A4
:1008B000C4F30014944034434460C468570009FAF8
:1008C00007F58E68AC43BE402643C6604C68022CD8
:1008D00001D0122C12D1D40800EB840CDCF820607B
:1008E0005407E40E0AFA04F826EA0806D1F8108044
:1008F00008FA04F848EA0608CCF820800468AC43FB
:100900000D7905F00305BD40254305604C68E40002
:1009100065D5374C256845F480452560246822F06C
:10092000030504F480440094324C2E19D6F808785C
:100930009407250F0AFA05F4A7432F4CA04201D1D2
:10094000002424E02D4CA04201D101241FE02C4CB6
:10095000A04201D102241AE02A4CA04201D1032472
:1009600015E0294CA04202D1042410E037E0274CC6
:10097000A04201D105240AE0254CA04201D1062461
:1009800005E0244CA04201D1072400E00824AC403B
:100990003C43C6F80848DBF800405D464E689C437F
:1009A000F60300D51C432C60DEF8004075464E6807
:1009B0009C43B60300D51C432C600C4D08352C68B5
:1009C0004E689C43F60200D51C432C60074D0C3545
:1009D0002C684E689C43B60200D51C432C60521C08
:1009E000102AFFF44AAFBDE8F88F0000003C014038
:1009F0004438024000300140000002400004024040
:100A000000080240000C02400010024000140240A6
:100A100000180240001C02400069084000D001207C
:100A200070470AB1816170470904FBE7014880689B
:100A300070470000D8000020024881680278114405
:100A400081607047D80000200B4810B5016841F460
:100A500000710160016841F480610160016841F446
:100A600080710160032000F06FF8002000F006F8AC
:100A700000F024F8002010BD003C024070B50D4D80
:100A800004464FF47A712878B1FBF0F00A490968FE
:100A9000B1FBF0F001F07CF948B9102C07D200222C
:100AA0002146501E00F030F800206C6070BD01201F
:100AB00070BD0000D8000020E40000200A4808B5FE
:100AC000016841F480410160006800F480400090BA
:100AD0000548001F016841F080510160006800F086
:100AE0008050009008BD000044380240002809DB17
:100AF00000F01F02012191404009800000F1E02038
:100B0000C0F8001170470000F0B40E4B1B68C3F32F
:100B10000223C3F10704042C00D904241D1D072D52
:100B200001D2002300E0DB1E012606FA04F56D1E4B
:100B30000D409D409E40761E164045EA0601F0BCE1
:100B400003F053B80CED00E0064A00F0070110680E
:100B50004FF6FF03184040EA0120034908431060A4
:100B6000704700000CED00E00000FA0570470068D7
:100B7000416200207047F0B50368586A39B19C6A39
:100B80004FF4827500EB144400204E1E0AE040EA48
:100B9000024098620FE005EB8007DF59401C04EB30
:100BA0001744C0B2B042F6D344EA02404FF4807218
:100BB00002EB810158500020F0BDD0F8040402F08F
:100BC00018B8C1EBC10200EB8202D0F80404926CA9
:100BD00001F083BFC1EBC10200EB8202D0F8040434
:100BE000D2F8082201F0CEBFD0F8040402F003B816
:100BF00070B504460B0601F00F00C0EBC00104EB1A
:100C000081014FF001024FF0000503D581F83D202E
:100C10003C3103E081F8FD5101F5FE71087094F854
:100C2000BC03012808D084F8BC23206802F078FBBC
:100C300084F8BC53002070BD022070BD70B504461E
:100C400001F00F006268904201D9012070BD0B06CF
:100C500001F00F01C1EBC10104EB81014FF0010272
:100C60004FF0000503D581F83D203C3103E081F8C9
:100C7000FD5101F5FE718D70087094F8BC030128D8
:100C800008D084F8BC23206802F042FD84F8BC53ED
:100C9000002070BD022070BD2DE9F04104460F0612
:100CA00001F00F00C0EBC00104EB81014FF0010621
:100CB0004FF0000503D581F83D603C3103E081F839
:100CC000FD5101F5FE7108708A60CB704A7802B15F
:100CD000C880022B00D10D7194F8BC03012809D003
:100CE00084F8BC63206802F079FA284684F8BC5383
:100CF000BDE8F0810220FBE770B50D4601F00F045E
:100D0000C4EBC40100EB8101C1F81032C1F8082224
:100D10000023C1F8143281F8FD3181F8FC410369E8
:100D200001F5FE71012B00D10A612A07027C0068DF
:100D300003D002F045FD002070BD02F031FCFAE75F
:100D400070B504460D4601F00F006168884201D974
:100D5000012070BD29064FF000064FF0010207D5B3
:100D6000C0EBC00104EB810181F83D203C3107E07C
:100D7000C5EBC50104EB810181F8FD6101F5FE7150
:100D80008A70087094F8BC03012807D084F8BC234B
:100D9000206802F0E9FC280702D007E0022070BDBD
:100DA000217C04F57172206802F086FC84F8BC6333
:100DB000002070BD70B50D4601F00F04C4EBC401F6
:100DC00000EB81010B658A6400234B65012381F8E8
:100DD0003D3001F83C4F0369012B00D10A612A071D
:100DE000027C006803D002F0EBFC002070BD02F032
:100DF000D7FBFAE72DE9F84F05680446284602F0CC
:100E000006FE00287ED1206802F02DFE002879D051
:100E1000206802F028FE800704D52068416901F0AF
:100E200002014161206802F01EFEC10604F57170E6
:100E3000009034D52068816921F0100181612F6A0A
:100E400007F00F00C0EBC00004EB8006C7F343407F
:100E500006F5FE76022802D0062811D01AE047F6E1
:100E6000F070074216D0C7F30A1217462846F168F9
:100E700002F0FDFDF0683844F060B069384408E0E5
:100E800008222846009902F0F2FDB069C7F30A1162
:100E90000844B0612068816941F0100181612068D7
:100EA00002F0E1FD00034FF0010B5AD50026206847
:100EB00002F0B8FD8046DFF864A34FE05FEAC87037
:100EC00049D0F1B2206802F0C6FD0746C00707D03E
:100ED00005EB4611C1F808BB3146204601F030F958
:100EE000380722D505EB46110820C1F8080B206809
:100EF000D0F8409000EB4610D0F8081BD14507D938
:100F0000090400E087E103D54FF40041C0F8081B55
:100F1000204600F073FAD14507D92069012804D191
:100F200020680121009A02F0C7FBF80604D505EB02
:100F300046111020C1F8080BB80604D505EB461180
:100F40002020C1F8080BB80405D505EB46114FF475
:100F50000050C1F8080B4FEA5808761CB8F1000F92
:100F6000ACD1206802F07FFD40034FF000095BD553
:100F7000206802F050FD8046002652E05FEAC8700B
:100F80004CD0F1B2206802F054FD0746C00723D0D0
:100F900006F00F010BFA01F0D5F834188143C5F8BB
:100FA000341805EB4610C0F808B9206901280FD1A4
:100FB000C6EBC60004EB8000D0E911211144816426
:100FC00036B9206D20B920680121009A02F074FB27
:100FD000F1B22046FFF7F5FD380704D505EB4611C1
:100FE0000820C1F80809F80604D505EB46111020C1
:100FF000C1F80809780604D505EB46114020C1F870
:101000000809B80704D505EB46110220C1F8080904
:10101000380603D53146204601F0F8F84FEA580863
:10102000761CB8F1000FA9D1206802F01CFD002841
:1010300011DAD5F8040820F00100C5F8040894F886
:10104000F403012829D0204600F0BCF9206841694A
:1010500001F000414161206802F005FD00050BD55B
:10106000D5F80808C00702D0204600F0EFF9206844
:10107000416901F400614161206802F0F4FCC004A0
:1010800068D5D5F8040820F00100C5F8040810213F
:10109000206802F09DFC002127E084F8F4930021F1
:1010A0002046FFF763FDD1E705EB41104FF67F3295
:1010B000C0F80829D0F8003923F40013C0F800392B
:1010C000D0F8003943F00063C0F80039C0F8082BAD
:1010D000D0F8002B22F40012C0F8002BD0F8002B1F
:1010E00042F00062C0F8002B491C60688842DBD8DF
:1010F000D5F81C0840F00110C5F81C08206B60B141
:10110000D5F8840840F00B00C5F88408D5F84408E9
:1011100040F00B00C5F844080CE0D5F8140842F282
:101120002B010843C5F81408D5F8100840F00B004F
:10113000C5F81008D5F8000820F4FE60C5F80008CE
:10114000217C2068009A02F0B7FA2068416901F416
:1011500080514161206802F086FC800415D520682A
:1011600002F07CF8206802F045FCE06000F0BEFA76
:101170000146227B206802F0B1FC204600F00CF909
:101180002068416901F400514161206802F06BFC64
:10119000000707D5204600F019F92068416901F0E1
:1011A00008014161206802F05EFCC00208D5002100
:1011B000204600F035F82068416901F48011416152
:1011C000206802F050FC800208D50021204600F083
:1011D0002BF82068416901F400114161206802F098
:1011E00042FC400007D52046FFF7E7FC2068416934
:1011F00001F080414161206802F035FC40070AD5CA
:1012000020684568680702D52046FFF7EDFC206896
:10121000416829434160BDE8F88F00000A30544F0F
:10122000D0F8040401F034BDD0F8040401F032BD5C
:101230002DE9F0418AB0040005D094F8BD0326687A
:10124000002520B108E001200AB0BDE8F08184F853
:10125000BC53204600F05EF8032084F8BD03F06B19
:10126000C00500D42561206802F094F904F1100152
:10127000282288466846FEF7D4FF94E80F0001F064
:10128000FBFF0227C8BB0021206802F0FFFB002102
:1012900001260EE0C1EBC10004EB800080F83D6048
:1012A00000F83C1FC180C5708560C560491CC9B28B
:1012B000456160688842EDD8002111E0C1EBC100B2
:1012C00004EB800080F8FD5180F8FC1180F8FF519C
:1012D000C0F80452C0F80852491CC9B2C0F81052F4
:1012E00060688842EAD8282241466846FEF799FF9E
:1012F00094E80F0002F094F810B184F8BD73A2E7EF
:1013000084F8385084F8BD63206802F07DF800202E
:101310009AE7000010B586B0044614216846FEF72F
:1013200099FF2068B0F1A04F2FD119480021026821
:1013300042F001020260006800F0010005904FF4E5
:10134000C05000900220CDE90101032003900A2043
:10135000049069460F48FFF785FA0D48001D0168A3
:1013600041F0800101600A481430016841F4804175
:1013700001600068002200F480400590114643207F
:10138000FFF7C2FB4320FFF7B1FB06B010BD000022
:10139000303802400000024070B50446C0680125A4
:1013A00070B1022801D0FFF77EF82946D4F8040472
:1013B00001F0C6FCD4F80404BDE8704001F081BC23
:1013C0000025F2E7D0F8040401F0A4BCD0F804042E
:1013D00001F0AABC10B5044690F8BC0301280BD05C
:1013E000012084F8BC0384F83810206802F065FB03
:1013F000002084F8BC0310BD022010BDD0F80424E6
:1014000000F57171104601F0A7BC10B504460068E4
:1014100094F8BC13012906D0012184F8BC13A16AF9
:10142000012902D008E0022010BDA169012903D0E2
:10143000816B41F480318163206801F0D9FF20681D
:1014400002F0B0FA002084F8BC0310BD10B50446C9
:10145000D0F8040401F0C2FC2068D0F8001E41F06E
:101460000101C0F8001E206A002804D0024801686B
:1014700041F00601016010BD10ED00E02DE9F843D8
:10148000044600684FF00109C1074FF0000501D183
:10149000400726D5DFF80C81C8F86850FFF7C6FA78
:1014A0000646414F04E0FFF7C1FA801B022857D8D7
:1014B00038680001F7D46068217A800140EA017041
:1014C000394984310860C8F86890FFF7AFFA0646DA
:1014D00004E0FFF7ABFA801B022841D8386800010E
:1014E000F7D52078800752D52F484030016841F069
:1014F0008051016000682D4F00F0805000903868E6
:1015000040F480703860FFF791FA064604E0FFF778
:101510008DFA801B022823D83868C005F7D5224EE3
:101520007036306810F4407020D0A18901F4407109
:1015300081421BD030681E4920F44070C1F80090F1
:101540000D6030603068C00710D0FFF76FFA0546B5
:1015500041F2883707E0FFF769FA401BB84202D929
:101560000320BDE8F88330688007F4D5E0680E49B1
:10157000C0F301220831032A0BD0086820F4F810C8
:1015800008603068A189C1F30B0108433060002076
:10159000E7E70A68074B22F4F812184002430A6092
:1015A000EFE70000000047420038024000700040B2
:1015B000400E4742FFFCFF0F2DE9F0470D460400A7
:1015C00065D0DFF81491D9F80000EFB200F00F00F9
:1015D000A84207D289F80070D9F8000000F00F0087
:1015E000A84254D120683D4E810712D5400703D54B
:1015F000306840F4E05030602078000703D5306850
:1016000040F4604030603068A16820F0F00008438A
:1016100030602078C0072DD0304960680839012833
:1016200012D0022813D0032811D009688907002995
:101630002DDA316821F0030101433160FFF7F6F93B
:10164000804641F2883A0EE009688903EFE70968AD
:101650008901ECE7FFF7EAF9A0EB0801514502D94F
:101660000320BDE8F0873068616800F00C00B0EB43
:10167000810FEFD1D9F80010484601F00F01A942BF
:1016800007D90770006800F00F00A84201D00120C0
:10169000E7E72078400705D53068E16820F4E0509E
:1016A000084330602078000706D53068216920F4AF
:1016B000604040EAC100306000F03EF83168084AFE
:1016C000C1F30311515CC840064908600648006830
:1016D000FFF7D4F90020C4E7003C0240083802407C
:1016E0004C410008E4000020DC00002001480068B4
:1016F00070470000E40000200448054900680968BC
:10170000044AC1F38221515CC8407047E4000020C4
:10171000083802405C41000804480549006809682F
:10172000044AC1F34231515CC8407047E4000020D4
:10173000083802405C410008154810B5006810F0F8
:101740000C01144813D0144B04290FD008290ED1D2
:101750000F4C241F216801F03F022168490207D580
:101760002068C0F38810A0FB030106E0184610BDF6
:101770002168C1F38811A1FB00010023FEF720FDC1
:101780002168C1F30141491C4900B0FBF1F010BDD3
:10179000083802400024F40040787D012DE9F84F1C
:1017A000040075D02078DFF828A3C007AAF104054B
:1017B00048D00AF104000168C1F38101012908D071
:1017C0000068C0F3810002280AD1DAF80000400264
:1017D00006D52868800335D560680028E1D031E05F
:1017E0006068B0F5803F10D0B0F5A02F286810D009
:1017F00020F480302860286820F480202860606809
:10180000A0B1FFF713F906460CE0286840F48030D9
:10181000F4E740F480202860F7E7FFF707F9801B22
:10182000642871D828688003F7D50BE0FFF7FEF82D
:10183000064604E0FFF7FAF8801B6428F1D8286810
:101840008003F7D42078DFF88C9280074FF0000BEC
:101850003DD59F48001D016811F00C0F08D00068AD
:10186000C0F3810002280AD1DAF80000400206D451
:101870002868800715D5E068012809D111E0E068E3
:10188000B8B10121C9F80010FFF7D0F8064605E00D
:101890001AE1FFF7CBF8801B0228C2D8286880071E
:1018A000F7D52868216920F0F80040EAC1002860D7
:1018B0000DE0C9F800B0FFF7B9F8064604E0FFF7FD
:1018C000B5F8801B02281FD828688007F7D4207835
:1018D000000722D57E4F80486169703771B10121C0
:1018E0000160FFF7A3F8064604E0FFF79FF8801BAE
:1018F000022809D838688007F7D50EE0C0F800B094
:10190000FFF794F8064605E082E0FFF78FF8801BAA
:1019100002287DD838688007F7D42078400765D53D
:101920006B484FF000083C300068C0000BD468489A
:101930003C30016841F08051016000684FF00108BF
:1019400000F080500090654F3868C0050FD43868AB
:1019500040F480703860FFF769F8064604E0FFF74E
:1019600065F8801B022853D83868C005F7D5584F52
:10197000A0686C3701280FD00528386810D020F0F7
:1019800001003860386820F004003860A068B0B109
:10199000FFF74CF806460EE0386840F00100F4E727
:1019A00040F004003860F7E7FFF740F8811B41F290
:1019B0008830814263D838688007F5D50DE0FFF79D
:1019C00035F8064606E0FFF731F8811B41F2883012
:1019D000814254D838688007F5D4B8F1000F05D09B
:1019E0003B483C30016821F080510160A069B8B3E8
:1019F0003749091D0968C1F38101022946D002282F
:101A0000584606D0C9F86000FFF710F8044639E0E0
:101A100035E04F46C9F86000FFF708F8064604E0D5
:101A2000FFF704F8801B022829D828688001F7D422
:101A3000D4E907010843A16A294A490802EB014198
:101A4000626A41EA8211084394F82C1040EA01616D
:101A5000CAF8001001203866FEF7E8FF044605E0EA
:101A600034E0FEF7E3FF001B022808D82868800155
:101A7000F7D52BE0FEF7DAFF001B022802D903207E
:101A8000BDE8F88F28688001F4D41FE00128F7D062
:101A9000DAF80000E26900F48001914214D1226A70
:101AA00000F03F0191420FD147F6C071626A0140D8
:101AB000914209D1A26A00F44031914204D1E16A15
:101AC00000F07060884201D00120D9E70020D7E7FC
:101AD0000438024000004742800E47420070004038
:101AE0000000FFFF70B5040002D0607F10B106E077
:101AF000012070BD00202077204600F049F8022028
:101B000060772168CA2048622168532048622046D5
:101B100000F0D4FBFF25042618BB206881681B4A0F
:101B2000114081602068816862681143D4E9042310
:101B30001A43114381602168E068086120680169E7
:101B4000228941EA024101612068C16821F08001D7
:101B5000C16020688068800607D4204600F0FEF847
:101B600018B1206845626677C2E72068016C21F4ED
:101B7000802101642068016CA2691143016420681E
:101B8000456201206077002070BD0000BFFF8FFF1D
:101B900000680349884202D1024901200860704769
:101BA000002800403C0E47422DE9F0470446007FE4
:101BB0000B4601281FD04FF0010984F81C90022029
:101BC0006077DAB19878D97840EA01455878197881
:101BD000000240EA413005432168CA20486221687A
:101BE00053204862204600F069FB0026FF274FF093
:101BF000040860BB1AE00220BDE8F0875878C106EF
:101C000003D500F0EF000A305870D87800F04BFB95
:101C10000204587800F047FB42EA0022987800F06E
:101C200042FB0243187842EA4035D5E70F480540A9
:101C3000206845602068C16821F08001C16020688B
:101C4000806880060AD4204600F088F830B1206809
:101C5000476284F81D8026770120CDE7206847621F
:101C600084F81D9026770020C6E700003FFFFF00A4
:101C70002DE9F0470446007F0D46012827D04FF09C
:101C8000010A84F81CA00220607720680026806882
:101C90004FEA4060F2B1002800DBEE70A8782978A6
:101CA00040EA01476878E978000240EA01400743CA
:101CB0002168CA204862216853204862204600F00B
:101CC000FDFA4FF0FF084FF00409A0BB16E0022018
:101CD000BDE8F087002800DBEE70287800F0E3FA1A
:101CE0000204687800F0DFFA42EA0022A87800F0E7
:101CF000DAFA0243E87842EA0047D9E71648074093
:101D0000206807602068816821F480218160D5E91E
:101D10000310014320688268114381602068C16814
:101D200021F08001C1602068806880060BD42046C5
:101D300000F014F838B12168C1F8248084F81D90AF
:101D400026770120C4E72168C1F8248084F81DA00B
:101D500026770020BCE700007F7F7F0070B5054636
:101D60000068C16821F0A001C160FEF75FFE044673
:101D70004FF47A7606E0FEF759FE001BB04201D917
:101D8000032070BD2868C0688006F4D5002070BDAF
:101D900010B5401EB0F1807F01D3012010BD4FF07F
:101DA000E02460610F21601701F01FFF0020A06197
:101DB00007202061002010BD70B5040004D094F805
:101DC0003900002510B106E0012070BD84F83850BC
:101DD000204600F023F8242084F839002068C168E8
:101DE00021F40051C160204600F010FB2068016919
:101DF00021F4904101612068416921F02A0141618B
:101E00002068C16841F40051C160E563202084F876
:101E1000390084F83A00002070BD000010B586B08B
:101E2000044614216846FEF715FA144920688842D2
:101E300021D113480021026842F0100202600068BC
:101E400000F0100005900E481438026842F00102BC
:101E50000260006800F0010005904FF4C06000903F
:101E60000220CDE901010320039007200490694678
:101E70000448FEF7F7FC06B010BD0000001001405A
:101E80004438024000000240FEE7F0B500230A2477
:101E9000302537261F4610E0B4EB107F02D905EB42
:101EA000107C01E006EB107C01F813C001EB430C41
:101EB00000015B1C8CF80170DBB29342ECD3F0BDE7
:101EC0007FB50024144800940194029411490394AE
:101ED00001604FF44031C0E9011401250461057629
:101EE00080F820400D49C0E90A14C561C46080F83B
:101EF00030404561FEF781FB00B1FEE70420CDE9EB
:101F00000005694602940448FEF7CEFA002800D086
:101F1000FEE77FBD00200140CC0500200100000F3E
:101F20002DE9F04F87B014216846FEF793F9474832
:101F30000024016841F004010160016801F004011E
:101F40000591016841F020010160016801F0200164
:101F50000591016841F080010160016801F0800194
:101F60000591016841F001010160016801F0010182
:101F70000591016841F040010160016801F04001F4
:101F80000591016841F0020101600068304F00F0E6
:101F900002004FF400550590002229463846FEF70E
:101FA00040FDDFF8B090002280214846FEF739FD61
:101FB000DFF8A4A06E11002231465046FEF731FD35
:101FC000DFF898B04FF40078002241465846FEF7FB
:101FD00028FD00950125CDE9015469463846039452
:101FE000FEF740FC4027009769464846CDE9014589
:101FF000FEF738FC80200090CDE901546946484640
:102000000394FEF72FFC02200097CDE901406946BA
:102010005046FEF727FC0096CDE90154694650462C
:102020000394FEF71FFC009669465846CDE901452A
:10203000FEF718FCCDF80080CDE9015469465846FA
:102040000394FEF70FFC07B0BDE8F08F3038024074
:102050000008024000140240001802400004024040
:1020600010B586B014216846FEF7F4F81A4800242B
:1020700018490594C0E900147F218160FF21C0E95F
:10208000031444618461FFF72DFD00B1FEE78DF874
:1020900000408DF801408DF802400394012269460A
:1020A0000D480494FFF7E4FD00B1FEE701208DF830
:1020B00014008DF815008DF8160020208DF81700FB
:1020C000012205A90448FFF76FFD002800D0FEE7B4
:1020D00006B010BD002800401406002010B50022F4
:1020E0000F49104800F0CDFC08B1FEF7DCF90E49AD
:1020F0000C4800F09DFE08B1FEF7D5F90B490948E0
:1021000000F0B4FA08B1FEF7CEF9064800F00AFF75
:10211000002803D0BDE81040FEF7C5B910BD00008F
:102120001000002080060020EC000020C4000020E9
:10213000FEE770470148FEF75DBE00005009002031
:102140002DE9F04106680D460446316C06EB45105A
:10215000D0F8083BD4F810C04FF400474FF0200EE1
:1021600004F57172BCF1010F08D0DFF898C0614529
:1021700038D1190431D5C0F8087B3FE0224E5FEA20
:10218000037C04D5B14239D91904F4D436E05FEAAE
:10219000836C02D5C0F808EB30E013F0280F2DD186
:1021A000B14201D91904E6D4C5EBC50104EB8101A4
:1021B000D0F8100BD1F80432C0F31200181AC1F88D
:1021C0001402D1F808021844C1F8080295B9D4F8ED
:1021D000100278B9012120680AE099060AD5C0F8F2
:1021E00008EB07E035B9D4F8100218B900213046E1
:1021F00001F062FAE9B22046FEF7ECFC0020BDE8EF
:10220000F08100000A31544F0A30544F2DE9F84F45
:102210000E46C1EBC60100EB81048146D0F8008078
:10222000D4E914103C34884202D90120BDE8F88F6B
:10223000081AA168814200D20846C01C870808EB32
:10224000461A15E0451AA068A84200D20546E81CC7
:10225000870899F810000090ABB2F2B24046E168EE
:1022600001F0B0FCE0682844E060A0692844A06167
:10227000DAF8180980B2B84205D3D4E905018142E1
:1022800001D20028DED1D4E90501884208D806F041
:102290000F0101208840D8F834188143C8F8341859
:1022A0000020C3E77047002102E00A38C0B2491C91
:1022B0000A28FAD2090740EA1160704770B505464E
:1022C0000068C168490613D44FF0FF31C160FEF7C2
:1022D000ADFB04464FF47A7606E0FEF7A7FB001B41
:1022E000B04201D9032070BD2868C0684006F4D50B
:1022F000002070BD70470178407841EA00207047A7
:10230000FEF79ABB30B597B030216846FDF7A2FFC3
:1023100014210CA8FDF79EFF002425481194129467
:1023200013941494016841F080510160006800F03A
:10233000805015901F48016841F480410160006899
:10234000022500F480401590052000904FF4803065
:102350000190012002908005CDE9065019200890D7
:102360004FF4A870CDE9090507200B906846FFF7E8
:1023700015FA00B1FEE70F20CDE90C054FF4A0508F
:10238000CDE90E404FF48050109005210CA8FFF7C6
:1023900013F900B1FEE74FF480701490119511A865
:1023A000FFF76CF8002800D0FEE717B030BD000042
:1023B00040380240007000401048016841F470014C
:1023C00001600F48016841F0010101600C4A0021E1
:1023D0000832116002680B4B1A400260031D0A4A62
:1023E0001A60026822F48022026005480C30016005
:1023F00002495806803908607047000088ED00E007
:1024000000380240FFFFF6FE103000242DE9F041B5
:10241000044600680169E26821F4405111430161FA
:10242000A1682069E26901436069104301432068A3
:10243000C26849F20C639A430A43C260206841694A
:10244000A26921F4407111434161E06919276425B3
:102450003226B0F5004F354A354920684FF0000864
:1024600006D0884201D0904236D1FFF755F935E0C9
:10247000884201D0904202D1FFF74EF901E0FFF708
:102480003BF961684A18A0FB070148EB0803FDF718
:1024900097FE0146B0FBF5F00201B1FBF5F06FF0DD
:1024A0001803584301EB800006EBC000B0FBF5F0C9
:1024B00000F0F80002EB4002B1FBF5F0584301EBED
:1024C000800006EBC000B0FBF5F000F007002168CB
:1024D00010448860BDE8F081FFF70EF9014660689E
:1024E000830F8200A1FB0701FDF76AFE0146B0FBE6
:1024F000F5F06FF01802504301EB800006EB00107E
:10250000B0FBF5F000F0F002B1FBF5F002EB0012C9
:10251000B1FBF5F06FF01803584301EB800006EBB8
:102520000010B0FBF5F000F00F00D0E70014014000
:1025300000100140D0F8BC02002101750846704728
:1025400010B5D0F8BC2242B1D0F8C002517813784F
:10255000C26818469047002010BD032010BD70B51A
:102560000446812100F0B0FA002525876587012106
:10257000204600F0A9FAA4F87851A4F87A51D4F8CA
:10258000BC0248B1D4F8C00204F52F7480688047BB
:10259000206801F07FFB2560002070BD10B5D0F8E9
:1025A000BC422169012908D1D0F8C00223786178A2
:1025B000C2681846904700202061002010BD00002E
:1025C0000A21018000487047B401002029210180C0
:1025D00000487047240100202921018000487047ED
:1025E0005001002029210180004870477C01002013
:1025F0002DE9F0410446182001F0B2FC05004FF02F
:10260000000623D00520C4F8BC526087A4F87A01E4
:10261000402303228121204600F03EFB012727872B
:10262000402303223946204600F036FBA4F8787197
:102630002E75D4F8C0024068804702232A46012143
:10264000204600F035FB0020BDE8F0810220C4F8F0
:10265000BC62F9E710B5D0F8BC222AB102230121EF
:1026600000F026FB002010BD032010BD19B1C0F8FA
:10267000C012002070470320704710B51346D0F8F1
:10268000BC2222B190F89C42032C02D00BE0032024
:1026900010BD147D0CB1012010BD012414750A4633
:1026A000812100F0A4FB002010BD0000F8B500223D
:1026B000D0F8BC32ADF800200D781646144615F05F
:1026C000600521D0202D59D14A78921E0A2A55D270
:1026D000DFE802F00F085454545454130B05887863
:1026E00058604EE00122191D39E04888000A9860C0
:1026F00047E0012203F1080131E001221A61CA8892
:10270000194600F068F83CE04D78062D10D003DC47
:102710003DB1012D32D134E00A2D23D00B2D2DD126
:1027200028E090F89C22032A28D10222694616E06C
:102730004B882225B5EB132F07D1CA88642A00D90C
:102740006422D0F8C0120E6808E02125B5EB132FE3
:1027500004D1CA880D4E092A00D90922314600F059
:1027600054F80EE090F89C22032A07D1012203F1CD
:102770000C01F4E790F89C22032A04D000F020F822
:1027800003242046F8BD8878D860FAE7A801002025
:1027900010B5D0F8B8220AB152689047002010BD99
:1027A000134610B50A46002100F082FA002010BD41
:1027B000134610B50A46002100F019FB002010BD99
:1027C00010B50446802100F0F7FA2046BDE810401D
:1027D000002100F0F1BA10B50323C0F85821C0F869
:1027E0009432C0F85C2113460A46002100F060FADA
:1027F000002010BD10B505210023C0F894121A4620
:10280000194600F055FA002010BD10B50223826170
:10281000C0F89432C26113460A46002100F0E7FA7C
:10282000002010BD10B504210023C0F894121A46F0
:10283000194600F0DCFA002010BD000010B50A4671
:10284000024903A000F0EDF8004810BD580D00202B
:10285000437573746F6D2048494420436F6E6669F9
:1028600067000000122008800048704730000020F8
:1028700010B50A46024903A000F0D3F8004810BD85
:10288000580D0020437573746F6D204849442049EA
:102890006E74657266616365000000000420088044
:1028A000004870472C00002010B50A46024903A0DA
:1028B00000F0B7F8004810BD580D002053544D6982
:1028C00063726F656C656374726F6E696373000029
:1028D00010B50A46024903A000F0A3F8004810BD55
:1028E000580D002053544D333220437573746F6D6F
:1028F0002048756D616E20696E74657266616365EE
:102900000000000010B51A2008800A480168001D68
:102910000468001D0068081809D008220649FFF75E
:10292000B4FA0549042210312046FFF7AEFA0248F6
:10293000801E10BD107AFF1F46000020F8B5044627
:102940000020ADF8000048880D46010A08295FD232
:10295000DFE801F05E0409175E5E3D45D4F8B4126D
:10296000207C0A6819E0207C02260028D4F8B802EE
:1029700005D0C16A684688470146467039E0816AD9
:10298000F8E7C0B2062843D2DFE800F0030B1115C8
:10299000191DD4F8B402426806E069469047014622
:1029A00027E0D4F8B40282688AB3207CF5E7D4F833
:1029B000B402C268F8E7D4F8B4020269F4E7D4F8C4
:1029C000B4024269F0E7D4F8B4028269ECE7207CF3
:1029D000E8B9D4F8B802416B68468847DFE7207C45
:1029E000A8B9D4F8B802016B6846884701460720A9
:1029F0004870EA888AB1BDF8000040B1824200D92F
:102A00000246ADF800202046FFF7FFFEF8BDFFE7C5
:102A100029462046FFF7D4FEF8E72046FFF702FFDD
:102A2000F4E770B5002300281ED00025044602E01C
:102A30006D1CEDB2641C2678002EF9D1022404EB43
:102A4000450414801278CA545B1C0322CA54002423
:102A50005B1C06E0CA545B1CDAB28C54521CD3B225
:102A6000401C0278002AF5D170BD01004FF0000033
:102A700004D0012901D0022901D003207047012090
:102A8000704730B4A0B1D0F8B84200230CB1C0F800
:102A9000B832D0F8CC420CB1C0F8CC3209B1C0F891
:102AA000B412012180F89C12027030BC00F0B0B862
:102AB00030BC0320704710B5D0F8C402FEF7BEF852
:102AC000BDE81040FFF7D1BF10B5D0F8C402FEF743
:102AD0008FF8BDE81040FFF7C8BF70B51646044632
:102AE00049B1D4F8B80242691AB194F89C0203289B
:102AF00042D0032070BDD4F89412002504F11400D4
:102B0000022932D1D0E90232934206D99A1A826060
:102B100031462046FFF74CFE0FE09A4214D1406840
:102B2000904211D3D4F8981288420DD20022114657
:102B30002046FFF73DFEC4F8985200231A46194676
:102B4000204600F0B5F810E0D4F8B802C16829B109
:102B500094F89C02032801D1204688478021204612
:102B600000F02AF92046FFF745FE94F8A00201285C
:102B700006D184F8A05203E0204690470028B9D13E
:102B8000002070BD10B51346044649B1D4F8B80210
:102B900082691AB194F89C02032824D0032010BD46
:102BA000D4F8941204F5AA70032920D1D0E90221A7
:102BB0008A420AD9521A82600846824200D30246EB
:102BC00019462046FFF7ECFD11E0D4F8B802016980
:102BD00029B194F89C02032801D120468847204659
:102BE000FFF720FE03E0204690470028D7D10020C1
:102BF00010BD0020704710B5012180F89C12D0F85C
:102C0000B82212B1526801799047002010BD00002F
:102C100010B5017839BB15490222C1F80404C0F887
:102C2000C4124FF0A0400860042048600020C1E9B1
:102C30000320C1E9062008624862C86208630846AA
:102C4000FEF7F6FA08B1FDF72EFC80210748FDF7E4
:102C50008EFF402200210548FDF78DFF80220121D3
:102C60000248FDF788FF002010BD00005009002039
:102C70000A0601F07F01D0F8C402C1EBC10100EBEC
:102C8000810002D590F83E00704790F8FE01704731
:102C9000002070470020704710B51C461346D0F83E
:102CA000C4022246FDF7F8FFBDE81040FFF7DDBE85
:102CB00010B5D0F8C402FEF71FF8BDE81040FFF7CA
:102CC000D4BE70B50125044680F89C520020C4F89B
:102CD00094026060C4F8A402D4F8BC0228B1D4F80D
:102CE000B802002142682046904700224023114646
:102CF0002046FFF7D1FF4026A4F864513346002256
:102D000080212046C4F86061FFF7C6FFA58400203B
:102D1000266270BD90F89C12042903D190F89D1290
:102D200080F89C120020704710B590F89C1203297F
:102D300004D1D0F8B812C96901B18847002010BD8C
:102D400001740020704710B5D0F8C402FEF742FBB2
:102D5000BDE81040FFF789BE70B5044600F2AA2016
:102D6000054600F04DF80120C4F89402B4F8B00212
:102D7000C4F8980294F8AA2212F01F000AD0012881
:102D80000ED0022812D02046BDE8704002F080012B
:102D900000F012B829462046BDE8704000F0C4B8E3
:102DA00029462046BDE8704000F0EEB9294620468D
:102DB000BDE8704000F042B910B5D0F8C402FDF78C
:102DC000BFFFBDE81040FFF750BE10B5D0F8C402F9
:102DD000FEF71BFBBDE81040FFF747BE90F89C12C2
:102DE00080F89D12042180F89C120020704710B5D5
:102DF000D0F8C402FDF7DEFFBDE81040FFF735BE96
:102E000070B5044611F8010B207011F8010B6070C9
:102E10000D460846FFF76FFAA91C60800D4608466C
:102E2000FFF769FAA080A81CFFF765FAE08070BD83
:102E300038B504460020ADF8000041B1C4F8B8121E
:102E4000896A68468847C4F8CC02002038BD032050
:102E500038BD03460320D3F8B822002A02D01268F6
:102E600018461047704700002DE9F0410F462C4EE0
:102E70008978002504463170012906D93946204653
:102E8000FFF79EFC0320BDE8F08194F89C02022825
:102E90000CD003281DD039462046FFF791FC31782D
:102EA0002046FFF775FC03252846ECE799B320463A
:102EB0006160FFF7CEFF050004D039462046FFF7DA
:102EC0007FFCF1E72046FFF7ADFC032084F89C026D
:102ED000EAE74FF00208C1B1606888421BD0C1B276
:102EE0002046FFF755FC317820466160FFF7B1FFBF
:102EF000050010D039462046FFF762FC21792046B4
:102F0000FFF746FC84F89C82CEE784F89C8220463A
:102F10006160FFF73DFC2046FFF784FCC4E700003A
:102F2000E8000020FFF751BF2DE9F0410A780027A3
:102F300012F0600208D0202A01D0402A71D1D0F8C6
:102F4000B8229268904731E04A78002301260A2A85
:102F500067D2DFE802F0415E6658660805662D29F3
:102F6000FFF7ECFC5FE004468888D8B9C888C8B988
:102F70004888802816D200F07F0594F89C02032828
:102F800010D084F89E5229462046FFF7DCFE2046EA
:102F9000FFF748FC1DB1022084F89C0243E084F84E
:102FA0009C6240E020463CE0FFF75EFF07463AE0C7
:102FB000CA88012A35D190F89C22012A04D0022A1D
:102FC00002D0032A2DD104E0012200F10801836020
:102FD00016E00122011D13E090F89C22012A03D083
:102FE000022A01D0032A1CD1CA88022A19D1C6603C
:102FF000D0F8A41209B10321C160022200F10C0132
:10300000FFF703FC0FE0498801290CD1C0F8A46246
:1030100011E090F89C22012A08D0022A06D0032A47
:1030200004D0FFF7CDFB3846BDE8F081498801297F
:10303000F9D1C0F8A432FFF7F5FBF4E72DE9F04130
:103040000D46044628780027097910F060000BD05F
:10305000202801D0402873D1D4F8B80229468268CC
:103060002046904707468CE06878D8B3012822D0E4
:10307000032865D194F89C02022802D003287CD151
:103080000BE0002979D0802977D02046FFF794FE05
:1030900080212046FFF790FE73E0688838B931B18F
:1030A000802904D0E88810B92046FFF785FE204625
:1030B000FFF7B8FB65E094F89C020228E1D00328F2
:1030C0005BD16888D8BB480602D02046FFF7F3FCE6
:1030D0002046FFF7A7FBD4F8B802294682682046AD
:1030E00090474EE0FFE794F89C020026022802D0A9
:1030F000032842D111E009B180293ED1080601F030
:103100007F0000EB800004EB800101D5143101E069
:1031100001F5AA7102220E602BE0080601F00F00F3
:1031200000EB800004EB80000BD5808C40B101F0F7
:103130007F0000EB800004EB800514350CE020E0FC
:103140001BE0B0F86401C0B101F07F0000EB80002B
:1031500004EB800505F5AA7541B1802906D020460B
:10316000FFF786FD10B10120286000E02E600222EA
:1031700029462046FFF749FB03E029462046FFF792
:103180001FFB3846BDE8F08170B50646087800247C
:103190000D4610F0600203D0202A01D0402A17D13A
:1031A00096F89C02012803D0022801D003280FD1F1
:1031B000287901280CD8D6F8B802826830469047A2
:1031C000E9880446214306D13046FFF72BFB02E095
:1031D0003046FFF7F5FA204670BD000070B50A785A
:1031E000012302F00F054E78AB401B4CD0F81C5861
:1031F000012E17D045EA0343C0F81C3800EB4210FB
:10320000D0F8002B12040BD4D0F8002B0B89C9780E
:10321000C3F30A031A4344EA81410A43C0F8002B6E
:10322000002070BD9BB21D43C0F81C5800EB42103B
:10323000D0F800391B04F3D4D0F800390D89C978CF
:10324000C5F30A0589042B4341EA82510B4323430A
:10325000C0F80039E4E7000000800010D0F8001941
:103260006FF30A01C0F80019D0F8041841F4807116
:10327000C0F804180020704770B5044606980A9EEE
:10328000049D0D99012816D0E06840F04000E060F0
:10329000204600F02BF8A16B1EB321F48031A1630E
:1032A000012D07D1A16841F00601A160A16841F09C
:1032B0002001A16070BDA06B20F48030A063E068A5
:1032C000094A1040E060E06820F44010E060012905
:1032D00003D1E06840F48010E060204600F006F87A
:1032E000DEE741F48031DAE7BFFFBDFF0B4A002182
:1032F000491C91420AD80369002BF9DA03690021BD
:1033000043F001030361491C914201D90320704736
:103310000369DB07F7D1002070470000400D030070
:1033200070B54C780A78012300EB4212012C2DD0A5
:10333000D2F8004B002C0BDAD2F8004B44F00064BA
:10334000C2F8004BD2F8004B44F08044C2F8004B66
:10335000D0F83C480D781E4605F00F05AB4024EA36
:103360000343C0F83C38D0F81C48097801F00F013D
:1033700006FA01F324EA0341C0F81C18D2F8000B46
:1033800019490840C2F8000B002070BDD2F800496E
:10339000002C0BDAD2F8004944F00064C2F800496E
:1033A000D2F8004944F08044C2F80049D0F83C48C3
:1033B0000D7805F00F061D46B3409BB29C43C0F844
:1033C0003C48D0F81C48097801F00F0105FA01F3D8
:1033D00099B28C43C0F81C48D2F800090349084050
:1033E000C2F80009D0E700000078F3EF007833EC72
:1033F00010B5D0F8041821F00201C0F80418032019
:10340000FDF71EFA002010BD10B5D0F8041841F0E9
:103410000201C0F804180320FDF712FA002010BDC5
:103420002DE9F04F0D46DDE90B1B00270446DDF8C2
:1034300024A0DDF8409038463E4604EB8002C2F8F6
:103440000461401C0F28F8D3B9F1000F204615D0B5
:10345000806B20F40012A263A06B40F4002220468F
:10346000A263C4F8006ED4F80028C4F8002801292B
:1034700016D0D0F8001841F0030116E0D0F8040887
:1034800040F00202C4F80428A06B40F40012A263CA
:10349000A06B20F40022A263A06B20F48022DEE760
:1034A000D0F800180BB141F00101C0F8001810214C
:1034B00000F08EFA00B10127204600F079FA00B141
:1034C0000127C4F81068C4F81468C4F81C68002008
:1034D0004FF000634FF090424FF67F3C14E004EB56
:1034E0004011D1F80089B8F1000F06DA10B1C1F827
:1034F000002904E0C4F8003901E0C1F80069C1F80E
:103500001069C1F808C9401C8542E8D8002014E0C1
:1035100004EB4011D1F8008BB8F1000F06DA10B1BE
:10352000C1F8002B04E0C4F8003B01E0C1F8006BD7
:10353000C1F8106BC1F808CB401C8542E8D8D4F81C
:10354000100820F48071C4F81018A6616FF0804054
:103550006061BAF1000F03D1A06940F01000A061D2
:10356000A0690A490843A061BBF1000F03D0A0691C
:1035700040F00800A061B9F1010F03D1A06904492E
:103580000843A0613846BDE8F08F000000383C8059
:1035900004000040816821F0010181600020704733
:1035A00070B50D784E78434CEBB200EB4313012E0F
:1035B0001FD0D3F8100B6FF31200C3F8100BD3F821
:1035C000100B2040C3F8100B486908B188684861A7
:1035D000D3F8100B40F40020C3F8100BD3F8100BF5
:1035E0008C68C4F312042043C3F8100B012A55D091
:1035F00058E04E69002ED3F8106932D06FF31206EE
:10360000C3F81069D3F810692640C3F810694E69F1
:103610008C68A64200D94C61D3F8104944F40024C8
:10362000C3F81049D3F810494E69C6F31206344363
:10363000C3F81049012A22D000EB4512D2F8003914
:1036400043F00443C2F800394A6932B3D0F8342851
:10365000097801F00F03012199400A43C0F834288A
:1036600026E02640C3F81069D3F8104944F400243A
:10367000C3F81049D3F810496FF31204D8E7096969
:1036800019B100EB4512C2F8141900EB4510D0F83F
:10369000001941F00441C0F8001909E0C86808B1F8
:1036A000C3F8140BD3F8000B40F00440C3F8000B30
:1036B000002070BDFFFF07E010B5036C134CA34260
:1036C00003D9D0F8003B002B1EDB0023C0F8103BD1
:1036D000D0F8103B43F40023C0F8103BD0F8103B67
:1036E00043F01803C0F8103BD0F8103B43F0C04340
:1036F000C0F8103B012907D1C0F8142BD0F8001BEB
:1037000041F08021C0F8001B002010BD0A30544F4A
:103710004A780B78012A00EB43100BD0D0F8002B2D
:1037200022F40012C0F8002BC978032914D0022912
:1037300012D017E0D0F8002922F40012C0F80029B6
:10374000C978032901D002290CD1D0F8001941F021
:103750008051C0F8001905E0D0F8001B41F08051FD
:10376000C0F8001B002070470A784B78D1B200EBFC
:103770004110012B12D0D0F8001B002906DB2AB122
:10378000D0F8001B21F08041C0F8001BD0F8001BCE
:1037900041F40011C0F8001B00207047D0F8001958
:1037A000002906DB2AB1D0F8001921F08041C0F8C9
:1037B0000019D0F8001941F40011C0F80019EBE726
:1037C000F8B50C784E78764DE3B26FF0604700EBB9
:1037D0004313012E26D0D3F8104B6FF31204C3F815
:1037E000104BD3F8104B2C40C3F8104B4D69002DF3
:1037F00073D08C6825446D1EB5FBF4F4D3F8105BD0
:10380000A4B207EAC4463543C3F8105BD3F8105B93
:103810008E686643C6F312042543C3F8105B012A81
:1038200070D0A5E04E69002ED3F8106921D06FF357
:103830001206C3F81069D3F810692E40C3F8106956
:103840004E698D682E44761EB6FBF5F5D3F81069E7
:1038500007EAC5453543C3F81059D3F810594E69E6
:10386000C6F312063543C3F81059CD78012D0ED09A
:1038700019E02E40C3F81069D3F8105945F400251B
:10388000C3F81059D3F810596FF3120509E0D3F8B3
:10389000105925F0C045C3F81059D3F8105945F018
:1038A0000055C3F81059012A18D000EB4413D3F87F
:1038B000004944F00444C3F80049CC78012C2FD0CF
:1038C0004A6962B3D0F83428097801F00F03012166
:1038D00099400A43C0F8342860E036E00A691AB11A
:1038E00000EB4413C3F81429C97801290FD1D0F88B
:1038F0000818C90500EB4411D1F8002903D442F09F
:10390000005202E030E042F08052C1F8002900EBA2
:103910004410D0F8001941F00441C0F800193DE00E
:10392000D0F80848E405D3F8004902D444F0005424
:1039300001E044F08054C3F8004900928A8A93B2AF
:103940000A78C96800F03EF928E0D3F8104B8D687A
:10395000C5F312052C43C3F8104BD3F8104B44F4B5
:103960000024C3F8104B5AE7CA680AB1C3F8142BF5
:10397000C97801290CD1D0F80808C005D3F8000B8C
:1039800002D440F0005001E040F08050C3F8000B3A
:10399000D3F8000B40F00440C3F8000B0020F8BD42
:1039A000FFFF07E0816841F001018160002070475E
:1039B000002110220261054A491C914201D90320CD
:1039C00070470369DB06F7D400207047400D030001
:1039D0000022202343EA811101610549521C8A42D9
:1039E00001D90320704703699B06F7D40020704774
:1039F000400D0300D0F8080810F0060004D002289B
:103A000003D0062801D00F2070470220704740697C
:103A100000F001007047D0F81818D0F81C080840D2
:103A200080B27047D0F81818D0F81C080840000C75
:103A3000704710B5D0F81038D0F8342801F00F04D2
:103A400000EB4110E24002F00102D0F8080943EA1D
:103A5000C212104010BD00EB4111D1F8081BD0F884
:103A60001408084070474169806908407047034660
:103A7000D21C10B508469208002103F5805302E0DD
:103A80001C68491C10C09142FAD310BD10B5C26821
:103A900022F0C042C260012902D029B1012010BD2C
:103AA000C16841F0005102E0C16841F08041C1604D
:103AB0003220FCF7C5FE002010BDD0F8002822F40B
:103AC000FE62C0F80028D0F800284FF4FE6303EA35
:103AD00001110A43C0F8002800207047022A3ED195
:103AE000264A274B0A449A4201D20F2138E0254A40
:103AF000254B0A449A4201D20E2131E0234A244B3D
:103B00000A449A4201D20D212AE0224A224B0A4459
:103B10009A4201D20C2123E0204A214B0A449A42C6
:103B200001D20B211CE01F4A1F4B0A449A4201D2CA
:103B30000A2115E01D4A1E4B0A449A420FD31D4A22
:103B40001D4B0A449A4201D2082109E01B4A114444
:103B50001B4A914201D2072102E0062100E009211F
:103B6000C26822F47052C260C2684FF4705303EA14
:103B700081210A43C260002070470000405327FFA4
:103B800000350C00401E1BFF40420F0000DC0BFF05
:103B9000804F1200808CF9FE20D6130060B6E5FE3F
:103BA00060E3160000D3CEFE40771B00C05BB3FE7F
:103BB000C091210000CA91FE20753800E05459FEE2
:103BC000E09C410010B5029C64B9DB1C9C0800EB32
:103BD0000230002300F5805002E004C902605B1C43
:103BE000A342FAD3002010BDFEE70907090E002802
:103BF00004DB00F1E02080F80014704700F00F00B3
:103C000000F1E02080F8141D704702E008C8121F80
:103C100008C1002AFAD170477047002001E001C1B5
:103C2000121F002AFBD17047302303EB101363F3FC
:103C30000F223A2B02D3DB1D63F30F2200F00F009B
:103C4000303060F307023A2802D3C01D60F3070248
:103C50000A70100A487070477EB5034600200A2695
:103C60006D46B3FBF6F2544204EB840403EB4403C9
:103C700030332B54401CC0B2131EF2D106E0831A1D
:103C80002B4413F8013C8B54521CD2B28242F6D31F
:103C90007EBD000010B5002821D0114B0022001F6E
:103CA000196803E0814203D80A4649680029F9D11E
:103CB00052B11368841A9C4204D100681844106001
:103CC000104602E0506000E0186039B102680B1A3B
:103CD000934203D10B681A4402604968416010BDE9
:103CE000C001002008B5FCF7AFFEFEF70BFBFEF7A6
:103CF00017F9FEF7B5F979487749002401604FF4C8
:103D0000E131C0E901140C21C460C0E904418461BF
:103D1000C461FEF751F800B1FEE7FEF7DFF9FEF7E8
:103D2000CFF800F06FF96EA000F0BDF970A000F0C0
:103D30005FF97248006800F04BF971A000F058F983
:103D4000012211027048FCF76CFE64486838FCF7E9
:103D500001FD0027DFF884B1DFF8B081A2468DF8BD
:103D600000403C463D460BF1400BA8F1010900F034
:103D700061F9684600F050F930B1202000F026F9D2
:103D80009DF8000000F022F954487F1CBFB20221C8
:103D90006838FCF78DFC48B950486838FCF72AFCB5
:103DA000C9F804004D486838FCF7D4FCF8071AD06D
:103DB00004208BF8000005F001008BF801005E463E
:103DC00040215348FCF728FEB0704E20F0701620BA
:103DD000307186F805A086F806A00120F071022057
:103DE0003072092208E005218BF80010B9F80410A0
:103DF00009098BF801100222384946484031FEF784
:103E00003CFC99F800004E46012839D142A000F050
:103E10004AF998F8000000F039F998F8010000F02C
:103E200035F90D2000F018F998F801200AB10120A9
:103E300000E0002098F8001001F00301012904D0EF
:103E4000022909D0032919D10EE008B1012200E0AE
:103E5000002280212E480FE008B1012200E000225C
:103E60004FF40071304807E0192A01D9012200E01F
:103E700000224FF400512D48FCF7D3FD86F800A036
:103E80004FF480712848FCF7C7FD70B1002C3FF457
:103E90006EAF641E14F0FF047FF469AF012DFBD1F7
:103EA00023A000F000F9002561E7FF2CFCD2641C80
:103EB000E4B2FF2CF8D1002DF6D122A000F0F3F8E7
:103EC00024A000F0F0F8706800F0D0F80D2000F0A9
:103ED000C3F801254BE70000001001403406002024
:103EE0000D50726F6772616D2073746172740D0092
:103EF000436F726520436C6B20000000E4000020DB
:103F000020487A0D0000000000180240090000203F
:103F100000140240800600205553425F52585F4211
:103F200075666665723A200000040240000802408F
:103F3000427574746F6E2072656C69617365640D8F
:103F400000000000427574746F6E207072657373A8
:103F500065640D00616463526573756C743D200087
:103F6000F0B50B30154D20F007010024144A0FE086
:103F700003688B420BD38B4205D95E1A43184768FE
:103F8000C3E9006700E04368136002C004E0021D5B
:103F900010680028ECD12046002802D1286808B11A
:103FA0000020F0BD064A07481060074A121A22F0A6
:103FB0000702C0E9002401202860D7E7C4010020DF
:103FC000C00100205C0F00205811002000F098B8BC
:103FD000FEB56946FFF740FE054600246E4604E044
:103FE000305D00F08DF8641CE4B2AC42F8D3FEBD45
:103FF00010B5044602E0641C00F082F82078002826
:10400000F9D110BD024800210160024941607047AA
:104010000000002000100140054949680A68920626
:1040200003D54968017001207047002070470000E7
:104030000000002018B5074C60680068000608D52D
:10404000684600F03BF8002803D061689DF8000046
:10405000486018BD00000020034949680A6812063C
:10406000FCD5486070470000000000203EB569465E
:10407000FFF7F2FD054600236C4604E0E05CFFF725
:10408000EBFF5B1CDBB2AB42F8D33EBD08B5694623
:10409000FFF7CAFD9DF80100FFF7DEFF9DF8000065
:1040A000FFF7DAFF08BD00B5034602E05B1CFFF72F
:1040B000D3FF18780028F9D100BD000030B50F4AB1
:1040C000B2F80214C1B1EFF31084EFF3138372B6A8
:1040D000B2F80054691AC1F30901515C0170B2F8D9
:1040E0000204401EA2F8020484F3108803F00100C9
:1040F00080F31388012030BD002030BDC8010020AE
:10410000114910B5B1F8022440F2FF339A4219D296
:10411000EFF31083EFF3138272B6B1F80044085541
:10412000B1F80004401CC0F30900A1F80004B1F884
:104130000204401CA1F8020483F3108802F001007D
:1041400080F3138810BD0000C801002000000000AB
:104150000000000001020304060708090000000037
:10416000010203048441000800000020C80100008F
:10417000CC0200086C420008C80100209013000027
:104180001A3C000801101365281B089D041AA90495
:104190001AD1041305291B083D081A7104170403DA
:1041A000090412013202164083045057260201020C
:1041B0000301031A1A031206100BFF0901A101855E
:1041C000010901152809250175089501B1820E9F85
:1041D00091828502090214190E1914150309031599
:1041E0001326FF5915190F19151C04090410280866
:1041F000088182850509051F2A031F490F25B18201
:10420000C060142055041B084F041A690441199713
:104210001182105324F413F1251B085F044BAD26C3
:10422000241A9D0C1A35041A4104C11AD9101ACD4A
:10423000041AE5041AC1041409022913010125C056
:104240003209042A02ED1509211101140122641614
:1042500007058103402D0507050107291A09562C7A
:0C426000691A31130A0632022A40E48178
:040000050800018965
:00000001FF
